{
  "_format": "hh-sol-artifact-1",
  "contractName": "FLT",
  "sourceName": "contracts/FLT.sol",
  "abi": [
    {
      "inputs": [
        {
          "internalType": "string",
          "name": "_uri",
          "type": "string"
        }
      ],
      "stateMutability": "nonpayable",
      "type": "constructor"
    },
    {
      "inputs": [],
      "name": "AccessControlBadConfirmation",
      "type": "error"
    },
    {
      "inputs": [
        {
          "internalType": "address",
          "name": "account",
          "type": "address"
        },
        {
          "internalType": "bytes32",
          "name": "neededRole",
          "type": "bytes32"
        }
      ],
      "name": "AccessControlUnauthorizedAccount",
      "type": "error"
    },
    {
      "inputs": [
        {
          "internalType": "address",
          "name": "sender",
          "type": "address"
        },
        {
          "internalType": "uint256",
          "name": "balance",
          "type": "uint256"
        },
        {
          "internalType": "uint256",
          "name": "needed",
          "type": "uint256"
        },
        {
          "internalType": "uint256",
          "name": "tokenId",
          "type": "uint256"
        }
      ],
      "name": "ERC1155InsufficientBalance",
      "type": "error"
    },
    {
      "inputs": [
        {
          "internalType": "address",
          "name": "approver",
          "type": "address"
        }
      ],
      "name": "ERC1155InvalidApprover",
      "type": "error"
    },
    {
      "inputs": [
        {
          "internalType": "uint256",
          "name": "idsLength",
          "type": "uint256"
        },
        {
          "internalType": "uint256",
          "name": "valuesLength",
          "type": "uint256"
        }
      ],
      "name": "ERC1155InvalidArrayLength",
      "type": "error"
    },
    {
      "inputs": [
        {
          "internalType": "address",
          "name": "operator",
          "type": "address"
        }
      ],
      "name": "ERC1155InvalidOperator",
      "type": "error"
    },
    {
      "inputs": [
        {
          "internalType": "address",
          "name": "receiver",
          "type": "address"
        }
      ],
      "name": "ERC1155InvalidReceiver",
      "type": "error"
    },
    {
      "inputs": [
        {
          "internalType": "address",
          "name": "sender",
          "type": "address"
        }
      ],
      "name": "ERC1155InvalidSender",
      "type": "error"
    },
    {
      "inputs": [
        {
          "internalType": "address",
          "name": "operator",
          "type": "address"
        },
        {
          "internalType": "address",
          "name": "owner",
          "type": "address"
        }
      ],
      "name": "ERC1155MissingApprovalForAll",
      "type": "error"
    },
    {
      "anonymous": false,
      "inputs": [
        {
          "indexed": true,
          "internalType": "address",
          "name": "account",
          "type": "address"
        },
        {
          "indexed": true,
          "internalType": "address",
          "name": "operator",
          "type": "address"
        },
        {
          "indexed": false,
          "internalType": "bool",
          "name": "approved",
          "type": "bool"
        }
      ],
      "name": "ApprovalForAll",
      "type": "event"
    },
    {
      "anonymous": false,
      "inputs": [
        {
          "indexed": true,
          "internalType": "bytes32",
          "name": "role",
          "type": "bytes32"
        },
        {
          "indexed": true,
          "internalType": "bytes32",
          "name": "previousAdminRole",
          "type": "bytes32"
        },
        {
          "indexed": true,
          "internalType": "bytes32",
          "name": "newAdminRole",
          "type": "bytes32"
        }
      ],
      "name": "RoleAdminChanged",
      "type": "event"
    },
    {
      "anonymous": false,
      "inputs": [
        {
          "indexed": true,
          "internalType": "bytes32",
          "name": "role",
          "type": "bytes32"
        },
        {
          "indexed": true,
          "internalType": "address",
          "name": "account",
          "type": "address"
        },
        {
          "indexed": true,
          "internalType": "address",
          "name": "sender",
          "type": "address"
        }
      ],
      "name": "RoleGranted",
      "type": "event"
    },
    {
      "anonymous": false,
      "inputs": [
        {
          "indexed": true,
          "internalType": "bytes32",
          "name": "role",
          "type": "bytes32"
        },
        {
          "indexed": true,
          "internalType": "address",
          "name": "account",
          "type": "address"
        },
        {
          "indexed": true,
          "internalType": "address",
          "name": "sender",
          "type": "address"
        }
      ],
      "name": "RoleRevoked",
      "type": "event"
    },
    {
      "anonymous": false,
      "inputs": [
        {
          "indexed": true,
          "internalType": "address",
          "name": "operator",
          "type": "address"
        },
        {
          "indexed": true,
          "internalType": "address",
          "name": "from",
          "type": "address"
        },
        {
          "indexed": true,
          "internalType": "address",
          "name": "to",
          "type": "address"
        },
        {
          "indexed": false,
          "internalType": "uint256[]",
          "name": "ids",
          "type": "uint256[]"
        },
        {
          "indexed": false,
          "internalType": "uint256[]",
          "name": "values",
          "type": "uint256[]"
        }
      ],
      "name": "TransferBatch",
      "type": "event"
    },
    {
      "anonymous": false,
      "inputs": [
        {
          "indexed": true,
          "internalType": "address",
          "name": "operator",
          "type": "address"
        },
        {
          "indexed": true,
          "internalType": "address",
          "name": "from",
          "type": "address"
        },
        {
          "indexed": true,
          "internalType": "address",
          "name": "to",
          "type": "address"
        },
        {
          "indexed": false,
          "internalType": "uint256",
          "name": "id",
          "type": "uint256"
        },
        {
          "indexed": false,
          "internalType": "uint256",
          "name": "value",
          "type": "uint256"
        }
      ],
      "name": "TransferSingle",
      "type": "event"
    },
    {
      "anonymous": false,
      "inputs": [
        {
          "indexed": false,
          "internalType": "string",
          "name": "value",
          "type": "string"
        },
        {
          "indexed": true,
          "internalType": "uint256",
          "name": "id",
          "type": "uint256"
        }
      ],
      "name": "URI",
      "type": "event"
    },
    {
      "inputs": [],
      "name": "BLACKLIST_ROLE",
      "outputs": [
        {
          "internalType": "bytes32",
          "name": "",
          "type": "bytes32"
        }
      ],
      "stateMutability": "view",
      "type": "function"
    },
    {
      "inputs": [],
      "name": "CREATOR_TOKEN_ID",
      "outputs": [
        {
          "internalType": "uint256",
          "name": "",
          "type": "uint256"
        }
      ],
      "stateMutability": "view",
      "type": "function"
    },
    {
      "inputs": [],
      "name": "DEFAULT_ADMIN_ROLE",
      "outputs": [
        {
          "internalType": "bytes32",
          "name": "",
          "type": "bytes32"
        }
      ],
      "stateMutability": "view",
      "type": "function"
    },
    {
      "inputs": [],
      "name": "FAN_TOKEN_ID",
      "outputs": [
        {
          "internalType": "uint256",
          "name": "",
          "type": "uint256"
        }
      ],
      "stateMutability": "view",
      "type": "function"
    },
    {
      "inputs": [
        {
          "internalType": "address",
          "name": "account",
          "type": "address"
        },
        {
          "internalType": "uint256",
          "name": "id",
          "type": "uint256"
        }
      ],
      "name": "balanceOf",
      "outputs": [
        {
          "internalType": "uint256",
          "name": "",
          "type": "uint256"
        }
      ],
      "stateMutability": "view",
      "type": "function"
    },
    {
      "inputs": [
        {
          "internalType": "address[]",
          "name": "accounts",
          "type": "address[]"
        },
        {
          "internalType": "uint256[]",
          "name": "ids",
          "type": "uint256[]"
        }
      ],
      "name": "balanceOfBatch",
      "outputs": [
        {
          "internalType": "uint256[]",
          "name": "",
          "type": "uint256[]"
        }
      ],
      "stateMutability": "view",
      "type": "function"
    },
    {
      "inputs": [
        {
          "internalType": "address",
          "name": "from",
          "type": "address"
        },
        {
          "internalType": "uint256",
          "name": "value",
          "type": "uint256"
        },
        {
          "internalType": "bool",
          "name": "isCreator",
          "type": "bool"
        }
      ],
      "name": "burn",
      "outputs": [],
      "stateMutability": "nonpayable",
      "type": "function"
    },
    {
      "inputs": [],
      "name": "creatorSupply",
      "outputs": [
        {
          "internalType": "uint256",
          "name": "",
          "type": "uint256"
        }
      ],
      "stateMutability": "view",
      "type": "function"
    },
    {
      "inputs": [],
      "name": "fanSupply",
      "outputs": [
        {
          "internalType": "uint256",
          "name": "",
          "type": "uint256"
        }
      ],
      "stateMutability": "view",
      "type": "function"
    },
    {
      "inputs": [
        {
          "internalType": "bytes32",
          "name": "role",
          "type": "bytes32"
        }
      ],
      "name": "getRoleAdmin",
      "outputs": [
        {
          "internalType": "bytes32",
          "name": "",
          "type": "bytes32"
        }
      ],
      "stateMutability": "view",
      "type": "function"
    },
    {
      "inputs": [
        {
          "internalType": "bytes32",
          "name": "role",
          "type": "bytes32"
        },
        {
          "internalType": "address",
          "name": "account",
          "type": "address"
        }
      ],
      "name": "grantRole",
      "outputs": [],
      "stateMutability": "nonpayable",
      "type": "function"
    },
    {
      "inputs": [
        {
          "internalType": "bytes32",
          "name": "role",
          "type": "bytes32"
        },
        {
          "internalType": "address",
          "name": "account",
          "type": "address"
        }
      ],
      "name": "hasRole",
      "outputs": [
        {
          "internalType": "bool",
          "name": "",
          "type": "bool"
        }
      ],
      "stateMutability": "view",
      "type": "function"
    },
    {
      "inputs": [
        {
          "internalType": "address",
          "name": "account",
          "type": "address"
        },
        {
          "internalType": "address",
          "name": "operator",
          "type": "address"
        }
      ],
      "name": "isApprovedForAll",
      "outputs": [
        {
          "internalType": "bool",
          "name": "",
          "type": "bool"
        }
      ],
      "stateMutability": "view",
      "type": "function"
    },
    {
      "inputs": [
        {
          "internalType": "address",
          "name": "to",
          "type": "address"
        },
        {
          "internalType": "uint256",
          "name": "value",
          "type": "uint256"
        },
        {
          "internalType": "bool",
          "name": "isCreator",
          "type": "bool"
        }
      ],
      "name": "mint",
      "outputs": [],
      "stateMutability": "nonpayable",
      "type": "function"
    },
    {
      "inputs": [
        {
          "internalType": "bytes32",
          "name": "role",
          "type": "bytes32"
        },
        {
          "internalType": "address",
          "name": "callerConfirmation",
          "type": "address"
        }
      ],
      "name": "renounceRole",
      "outputs": [],
      "stateMutability": "nonpayable",
      "type": "function"
    },
    {
      "inputs": [
        {
          "internalType": "bytes32",
          "name": "role",
          "type": "bytes32"
        },
        {
          "internalType": "address",
          "name": "account",
          "type": "address"
        }
      ],
      "name": "revokeRole",
      "outputs": [],
      "stateMutability": "nonpayable",
      "type": "function"
    },
    {
      "inputs": [
        {
          "internalType": "address",
          "name": "",
          "type": "address"
        },
        {
          "internalType": "address",
          "name": "",
          "type": "address"
        },
        {
          "internalType": "uint256[]",
          "name": "",
          "type": "uint256[]"
        },
        {
          "internalType": "uint256[]",
          "name": "",
          "type": "uint256[]"
        },
        {
          "internalType": "bytes",
          "name": "",
          "type": "bytes"
        }
      ],
      "name": "safeBatchTransferFrom",
      "outputs": [],
      "stateMutability": "pure",
      "type": "function"
    },
    {
      "inputs": [
        {
          "internalType": "address",
          "name": "",
          "type": "address"
        },
        {
          "internalType": "address",
          "name": "",
          "type": "address"
        },
        {
          "internalType": "uint256",
          "name": "",
          "type": "uint256"
        },
        {
          "internalType": "uint256",
          "name": "",
          "type": "uint256"
        },
        {
          "internalType": "bytes",
          "name": "",
          "type": "bytes"
        }
      ],
      "name": "safeTransferFrom",
      "outputs": [],
      "stateMutability": "pure",
      "type": "function"
    },
    {
      "inputs": [
        {
          "internalType": "address",
          "name": "",
          "type": "address"
        },
        {
          "internalType": "bool",
          "name": "",
          "type": "bool"
        }
      ],
      "name": "setApprovalForAll",
      "outputs": [],
      "stateMutability": "nonpayable",
      "type": "function"
    },
    {
      "inputs": [
        {
          "internalType": "bytes4",
          "name": "interfaceId",
          "type": "bytes4"
        }
      ],
      "name": "supportsInterface",
      "outputs": [
        {
          "internalType": "bool",
          "name": "",
          "type": "bool"
        }
      ],
      "stateMutability": "view",
      "type": "function"
    },
    {
      "inputs": [
        {
          "internalType": "uint256",
          "name": "",
          "type": "uint256"
        }
      ],
      "name": "uri",
      "outputs": [
        {
          "internalType": "string",
          "name": "",
          "type": "string"
        }
      ],
      "stateMutability": "view",
      "type": "function"
    }
  ],
  "bytecode": "0x608060405234801561001057600080fd5b50604051612f44380380612f4483398181016040528101906100329190610370565b806100428161005d60201b60201c565b506100566000801b3361007060201b60201c565b50506106ac565b806002908161006c91906105da565b5050565b6000610082838361016e60201b60201c565b6101635760016003600085815260200190815260200160002060000160008473ffffffffffffffffffffffffffffffffffffffff1673ffffffffffffffffffffffffffffffffffffffff16815260200190815260200160002060006101000a81548160ff02191690831515021790555061010061018860201b60201c565b73ffffffffffffffffffffffffffffffffffffffff168273ffffffffffffffffffffffffffffffffffffffff16847f2f8788117e7eff1d82e926ec794901d17c78024a50270940304540a733656f0d60405160405180910390a460019050610168565b600090505b92915050565b6000610180838361019060201b60201c565b905092915050565b600033905090565b60006003600084815260200190815260200160002060000160008373ffffffffffffffffffffffffffffffffffffffff1673ffffffffffffffffffffffffffffffffffffffff16815260200190815260200160002060009054906101000a900460ff16905092915050565b6000604051905090565b600080fd5b600080fd5b600080fd5b600080fd5b6000601f19601f8301169050919050565b7f4e487b7100000000000000000000000000000000000000000000000000000000600052604160045260246000fd5b61026282610219565b810181811067ffffffffffffffff821117156102815761028061022a565b5b80604052505050565b60006102946101fb565b90506102a08282610259565b919050565b600067ffffffffffffffff8211156102c0576102bf61022a565b5b6102c982610219565b9050602081019050919050565b60005b838110156102f45780820151818401526020810190506102d9565b60008484015250505050565b600061031361030e846102a5565b61028a565b90508281526020810184848401111561032f5761032e610214565b5b61033a8482856102d6565b509392505050565b600082601f8301126103575761035661020f565b5b8151610367848260208601610300565b91505092915050565b60006020828403121561038657610385610205565b5b600082015167ffffffffffffffff8111156103a4576103a361020a565b5b6103b084828501610342565b91505092915050565b600081519050919050565b7f4e487b7100000000000000000000000000000000000000000000000000000000600052602260045260246000fd5b6000600282049050600182168061040b57607f821691505b60208210810361041e5761041d6103c4565b5b50919050565b60008190508160005260206000209050919050565b60006020601f8301049050919050565b600082821b905092915050565b6000600883026104867fffffffffffffffffffffffffffffffffffffffffffffffffffffffffffffffff82610449565b6104908683610449565b95508019841693508086168417925050509392505050565b6000819050919050565b6000819050919050565b60006104d76104d26104cd846104a8565b6104b2565b6104a8565b9050919050565b6000819050919050565b6104f1836104bc565b6105056104fd826104de565b848454610456565b825550505050565b600090565b61051a61050d565b6105258184846104e8565b505050565b5b818110156105495761053e600082610512565b60018101905061052b565b5050565b601f82111561058e5761055f81610424565b61056884610439565b81016020851015610577578190505b61058b61058385610439565b83018261052a565b50505b505050565b600082821c905092915050565b60006105b160001984600802610593565b1980831691505092915050565b60006105ca83836105a0565b9150826002028217905092915050565b6105e3826103b9565b67ffffffffffffffff8111156105fc576105fb61022a565b5b61060682546103f3565b61061182828561054d565b600060209050601f8311600181146106445760008415610632578287015190505b61063c85826105be565b8655506106a4565b601f19841661065286610424565b60005b8281101561067a57848901518255600182019150602085019450602081019050610655565b868310156106975784890151610693601f8916826105a0565b8355505b6001600288020188555050505b505050505050565b612889806106bb6000396000f3fe608060405234801561001057600080fd5b50600436106101365760003560e01c806376fd4fdf116100b8578063bb7b2a5c1161007c578063bb7b2a5c1461035f578063d1a1beb41461037d578063d547741f14610399578063e318cafb146103b5578063e985e9c5146103d3578063f242432a1461040357610136565b806376fd4fdf146102bb5780637f13aadc146102d757806391d14854146102f5578063a217fddf14610325578063a22cb4651461034357610136565b8063248a9ca3116100ff578063248a9ca3146102075780632eb2c2d6146102375780632f2ff15d1461025357806336568abe1461026f5780634e1273f41461028b57610136565b8062fdd58e1461013b57806301ffc9a71461016b578063059caad31461019b5780630e89341c146101b957806319afe463146101e9575b600080fd5b61015560048036038101906101509190611a4a565b61041f565b6040516101629190611a99565b60405180910390f35b61018560048036038101906101809190611b0c565b610433565b6040516101929190611b54565b60405180910390f35b6101a3610455565b6040516101b09190611a99565b60405180910390f35b6101d360048036038101906101ce9190611b6f565b61045b565b6040516101e09190611c2c565b60405180910390f35b6101f16104ef565b6040516101fe9190611c67565b60405180910390f35b610221600480360381019061021c9190611cae565b610513565b60405161022e9190611c67565b60405180910390f35b610251600480360381019061024c9190611ed8565b610533565b005b61026d60048036038101906102689190611fa7565b61056e565b005b61028960048036038101906102849190611fa7565b610590565b005b6102a560048036038101906102a091906120aa565b61060b565b6040516102b291906121e0565b60405180910390f35b6102d560048036038101906102d0919061222e565b610714565b005b6102df610849565b6040516102ec9190611a99565b60405180910390f35b61030f600480360381019061030a9190611fa7565b61084e565b60405161031c9190611b54565b60405180910390f35b61032d610862565b60405161033a9190611c67565b60405180910390f35b61035d60048036038101906103589190612281565b610869565b005b6103676108a4565b6040516103749190611a99565b60405180910390f35b6103976004803603810190610392919061222e565b6108a9565b005b6103b360048036038101906103ae9190611fa7565b61099b565b005b6103bd6109bd565b6040516103ca9190611a99565b60405180910390f35b6103ed60048036038101906103e891906122c1565b6109c3565b6040516103fa9190611b54565b60405180910390f35b61041d60048036038101906104189190612301565b610a57565b005b600061042b8383610a92565b905092915050565b600061043e82610aec565b8061044e575061044d82610bce565b5b9050919050565b60045481565b60606002805461046a906123c7565b80601f0160208091040260200160405190810160405280929190818152602001828054610496906123c7565b80156104e35780601f106104b8576101008083540402835291602001916104e3565b820191906000526020600020905b8154815290600101906020018083116104c657829003601f168201915b50505050509050919050565b7f22435ed027edf5f902dc0093fbc24cdb50c05b5fd5f311b78c67c1cbaff60e1381565b600060036000838152602001908152602001600020600101549050919050565b6040517f08c379a000000000000000000000000000000000000000000000000000000000815260040161056590612444565b60405180910390fd5b61057782610513565b61058081610c48565b61058a8383610c5c565b50505050565b610598610d4e565b73ffffffffffffffffffffffffffffffffffffffff168173ffffffffffffffffffffffffffffffffffffffff16146105fc576040517f6697b23200000000000000000000000000000000000000000000000000000000815260040160405180910390fd5b6106068282610d56565b505050565b6060815183511461065757815183516040517f5b05999100000000000000000000000000000000000000000000000000000000815260040161064e929190612464565b60405180910390fd5b6000835167ffffffffffffffff81111561067457610673611ce0565b5b6040519080825280602002602001820160405280156106a25781602001602082028036833780820191505090505b50905060005b8451811015610709576106df6106c78287610e4990919063ffffffff16565b6106da8387610e5d90919063ffffffff16565b61041f565b8282815181106106f2576106f161248d565b5b6020026020010181815250508060010190506106a8565b508091505092915050565b8261073f7f22435ed027edf5f902dc0093fbc24cdb50c05b5fd5f311b78c67c1cbaff60e138261084e565b1561077f576040517f08c379a000000000000000000000000000000000000000000000000000000000815260040161077690612508565b60405180910390fd5b61078c6000801b3361084e565b6107cb576040517f08c379a00000000000000000000000000000000000000000000000000000000081526004016107c290612574565b60405180910390fd5b60006107e585846107dd5760016107e0565b60005b61041f565b90508084111561081d5780935061081c7f22435ed027edf5f902dc0093fbc24cdb50c05b5fd5f311b78c67c1cbaff60e138661056e565b5b610836858461082d576001610830565b60005b86610e71565b61084284846001610f18565b5050505050565b600081565b600061085a8383610ff1565b905092915050565b6000801b81565b6040517f08c379a000000000000000000000000000000000000000000000000000000000815260040161089b90612444565b60405180910390fd5b600181565b826108d47f22435ed027edf5f902dc0093fbc24cdb50c05b5fd5f311b78c67c1cbaff60e138261084e565b15610914576040517f08c379a000000000000000000000000000000000000000000000000000000000815260040161090b90612508565b60405180910390fd5b6109216000801b3361084e565b610960576040517f08c379a000000000000000000000000000000000000000000000000000000000815260040161095790612574565b60405180910390fd5b6109898483610970576001610973565b60005b856040518060200160405280600081525061105c565b61099583836000610f18565b50505050565b6109a482610513565b6109ad81610c48565b6109b78383610d56565b50505050565b60055481565b6000600160008473ffffffffffffffffffffffffffffffffffffffff1673ffffffffffffffffffffffffffffffffffffffff16815260200190815260200160002060008373ffffffffffffffffffffffffffffffffffffffff1673ffffffffffffffffffffffffffffffffffffffff16815260200190815260200160002060009054906101000a900460ff16905092915050565b6040517f08c379a0000000000000000000000000000000000000000000000000000000008152600401610a8990612444565b60405180910390fd5b600080600083815260200190815260200160002060008473ffffffffffffffffffffffffffffffffffffffff1673ffffffffffffffffffffffffffffffffffffffff16815260200190815260200160002054905092915050565b60007fd9b67a26000000000000000000000000000000000000000000000000000000007bffffffffffffffffffffffffffffffffffffffffffffffffffffffff1916827bffffffffffffffffffffffffffffffffffffffffffffffffffffffff19161480610bb757507f0e89341c000000000000000000000000000000000000000000000000000000007bffffffffffffffffffffffffffffffffffffffffffffffffffffffff1916827bffffffffffffffffffffffffffffffffffffffffffffffffffffffff1916145b80610bc75750610bc6826110f5565b5b9050919050565b60007f7965db0b000000000000000000000000000000000000000000000000000000007bffffffffffffffffffffffffffffffffffffffffffffffffffffffff1916827bffffffffffffffffffffffffffffffffffffffffffffffffffffffff19161480610c415750610c4082610aec565b5b9050919050565b610c5981610c54610d4e565b61115f565b50565b6000610c68838361084e565b610d435760016003600085815260200190815260200160002060000160008473ffffffffffffffffffffffffffffffffffffffff1673ffffffffffffffffffffffffffffffffffffffff16815260200190815260200160002060006101000a81548160ff021916908315150217905550610ce0610d4e565b73ffffffffffffffffffffffffffffffffffffffff168273ffffffffffffffffffffffffffffffffffffffff16847f2f8788117e7eff1d82e926ec794901d17c78024a50270940304540a733656f0d60405160405180910390a460019050610d48565b600090505b92915050565b600033905090565b6000610d62838361084e565b15610e3e5760006003600085815260200190815260200160002060000160008473ffffffffffffffffffffffffffffffffffffffff1673ffffffffffffffffffffffffffffffffffffffff16815260200190815260200160002060006101000a81548160ff021916908315150217905550610ddb610d4e565b73ffffffffffffffffffffffffffffffffffffffff168273ffffffffffffffffffffffffffffffffffffffff16847ff6391f5c32d9c69d2a47ea670b442974b53935d1edc7fd64eb21e047a839171b60405160405180910390a460019050610e43565b600090505b92915050565b600060208202602084010151905092915050565b600060208202602084010151905092915050565b600073ffffffffffffffffffffffffffffffffffffffff168373ffffffffffffffffffffffffffffffffffffffff1603610ee35760006040517f01a83514000000000000000000000000000000000000000000000000000000008152600401610eda91906125a3565b60405180910390fd5b600080610ef084846111b0565b91509150610f118560008484604051806020016040528060008152506111e0565b5050505050565b610f256000801b3361084e565b610f64576040517f08c379a0000000000000000000000000000000000000000000000000000000008152600401610f5b90612574565b60405180910390fd5b8115610fad578015610f8e578260046000828254610f8291906125ed565b92505081905550610fa8565b8260046000828254610fa09190612621565b925050819055505b610fec565b8015610fd1578260056000828254610fc591906125ed565b92505081905550610feb565b8260056000828254610fe39190612621565b925050819055505b5b505050565b60006003600084815260200190815260200160002060000160008373ffffffffffffffffffffffffffffffffffffffff1673ffffffffffffffffffffffffffffffffffffffff16815260200190815260200160002060009054906101000a900460ff16905092915050565b600073ffffffffffffffffffffffffffffffffffffffff168473ffffffffffffffffffffffffffffffffffffffff16036110ce5760006040517f57f447ce0000000000000000000000000000000000000000000000000000000081526004016110c591906125a3565b60405180910390fd5b6000806110db85856111b0565b915091506110ed6000878484876111e0565b505050505050565b60007f01ffc9a7000000000000000000000000000000000000000000000000000000007bffffffffffffffffffffffffffffffffffffffffffffffffffffffff1916827bffffffffffffffffffffffffffffffffffffffffffffffffffffffff1916149050919050565b611169828261084e565b6111ac5780826040517fe2517d3f0000000000000000000000000000000000000000000000000000000081526004016111a3929190612655565b60405180910390fd5b5050565b60608060405191506001825283602083015260408201905060018152826020820152604081016040529250929050565b6111ec85858585611292565b600073ffffffffffffffffffffffffffffffffffffffff168473ffffffffffffffffffffffffffffffffffffffff161461128b57600061122a610d4e565b9050600184510361127a57600061124b600086610e5d90919063ffffffff16565b90506000611263600086610e5d90919063ffffffff16565b905061127383898985858961163a565b5050611289565b6112888187878787876117ee565b5b505b5050505050565b80518251146112dc57815181516040517f5b0599910000000000000000000000000000000000000000000000000000000081526004016112d3929190612464565b60405180910390fd5b60006112e6610d4e565b905060005b83518110156114f55760006113098286610e5d90919063ffffffff16565b905060006113208386610e5d90919063ffffffff16565b9050600073ffffffffffffffffffffffffffffffffffffffff168873ffffffffffffffffffffffffffffffffffffffff161461144d57600080600084815260200190815260200160002060008a73ffffffffffffffffffffffffffffffffffffffff1673ffffffffffffffffffffffffffffffffffffffff168152602001908152602001600020549050818110156113f557888183856040517f03dee4c50000000000000000000000000000000000000000000000000000000081526004016113ec949392919061267e565b60405180910390fd5b81810360008085815260200190815260200160002060008b73ffffffffffffffffffffffffffffffffffffffff1673ffffffffffffffffffffffffffffffffffffffff16815260200190815260200160002081905550505b600073ffffffffffffffffffffffffffffffffffffffff168773ffffffffffffffffffffffffffffffffffffffff16146114e8578060008084815260200190815260200160002060008973ffffffffffffffffffffffffffffffffffffffff1673ffffffffffffffffffffffffffffffffffffffff16815260200190815260200160002060008282546114e09190612621565b925050819055505b50508060010190506112eb565b5060018351036115b4576000611515600085610e5d90919063ffffffff16565b9050600061152d600085610e5d90919063ffffffff16565b90508573ffffffffffffffffffffffffffffffffffffffff168773ffffffffffffffffffffffffffffffffffffffff168473ffffffffffffffffffffffffffffffffffffffff167fc3d58168c5ae7397731d063d5bbf3d657854427343f4c083240f7aacaa2d0f6285856040516115a5929190612464565b60405180910390a45050611633565b8373ffffffffffffffffffffffffffffffffffffffff168573ffffffffffffffffffffffffffffffffffffffff168273ffffffffffffffffffffffffffffffffffffffff167f4a39dc06d4c0dbc64b70af90fd698a233a518aa5d07e595d983b8c0526c8f7fb868660405161162a9291906126c3565b60405180910390a45b5050505050565b60008473ffffffffffffffffffffffffffffffffffffffff163b11156117e6578373ffffffffffffffffffffffffffffffffffffffff1663f23a6e6187878686866040518663ffffffff1660e01b815260040161169b95949392919061274f565b6020604051808303816000875af19250505080156116d757506040513d601f19601f820116820180604052508101906116d491906127be565b60015b61175b573d8060008114611707576040519150601f19603f3d011682016040523d82523d6000602084013e61170c565b606091505b50600081510361175357846040517f57f447ce00000000000000000000000000000000000000000000000000000000815260040161174a91906125a3565b60405180910390fd5b805181602001fd5b63f23a6e6160e01b7bffffffffffffffffffffffffffffffffffffffffffffffffffffffff1916817bffffffffffffffffffffffffffffffffffffffffffffffffffffffff1916146117e457846040517f57f447ce0000000000000000000000000000000000000000000000000000000081526004016117db91906125a3565b60405180910390fd5b505b505050505050565b60008473ffffffffffffffffffffffffffffffffffffffff163b111561199a578373ffffffffffffffffffffffffffffffffffffffff1663bc197c8187878686866040518663ffffffff1660e01b815260040161184f9594939291906127eb565b6020604051808303816000875af192505050801561188b57506040513d601f19601f8201168201806040525081019061188891906127be565b60015b61190f573d80600081146118bb576040519150601f19603f3d011682016040523d82523d6000602084013e6118c0565b606091505b50600081510361190757846040517f57f447ce0000000000000000000000000000000000000000000000000000000081526004016118fe91906125a3565b60405180910390fd5b805181602001fd5b63bc197c8160e01b7bffffffffffffffffffffffffffffffffffffffffffffffffffffffff1916817bffffffffffffffffffffffffffffffffffffffffffffffffffffffff19161461199857846040517f57f447ce00000000000000000000000000000000000000000000000000000000815260040161198f91906125a3565b60405180910390fd5b505b505050505050565b6000604051905090565b600080fd5b600080fd5b600073ffffffffffffffffffffffffffffffffffffffff82169050919050565b60006119e1826119b6565b9050919050565b6119f1816119d6565b81146119fc57600080fd5b50565b600081359050611a0e816119e8565b92915050565b6000819050919050565b611a2781611a14565b8114611a3257600080fd5b50565b600081359050611a4481611a1e565b92915050565b60008060408385031215611a6157611a606119ac565b5b6000611a6f858286016119ff565b9250506020611a8085828601611a35565b9150509250929050565b611a9381611a14565b82525050565b6000602082019050611aae6000830184611a8a565b92915050565b60007fffffffff0000000000000000000000000000000000000000000000000000000082169050919050565b611ae981611ab4565b8114611af457600080fd5b50565b600081359050611b0681611ae0565b92915050565b600060208284031215611b2257611b216119ac565b5b6000611b3084828501611af7565b91505092915050565b60008115159050919050565b611b4e81611b39565b82525050565b6000602082019050611b696000830184611b45565b92915050565b600060208284031215611b8557611b846119ac565b5b6000611b9384828501611a35565b91505092915050565b600081519050919050565b600082825260208201905092915050565b60005b83811015611bd6578082015181840152602081019050611bbb565b60008484015250505050565b6000601f19601f8301169050919050565b6000611bfe82611b9c565b611c088185611ba7565b9350611c18818560208601611bb8565b611c2181611be2565b840191505092915050565b60006020820190508181036000830152611c468184611bf3565b905092915050565b6000819050919050565b611c6181611c4e565b82525050565b6000602082019050611c7c6000830184611c58565b92915050565b611c8b81611c4e565b8114611c9657600080fd5b50565b600081359050611ca881611c82565b92915050565b600060208284031215611cc457611cc36119ac565b5b6000611cd284828501611c99565b91505092915050565b600080fd5b7f4e487b7100000000000000000000000000000000000000000000000000000000600052604160045260246000fd5b611d1882611be2565b810181811067ffffffffffffffff82111715611d3757611d36611ce0565b5b80604052505050565b6000611d4a6119a2565b9050611d568282611d0f565b919050565b600067ffffffffffffffff821115611d7657611d75611ce0565b5b602082029050602081019050919050565b600080fd5b6000611d9f611d9a84611d5b565b611d40565b90508083825260208201905060208402830185811115611dc257611dc1611d87565b5b835b81811015611deb5780611dd78882611a35565b845260208401935050602081019050611dc4565b5050509392505050565b600082601f830112611e0a57611e09611cdb565b5b8135611e1a848260208601611d8c565b91505092915050565b600080fd5b600067ffffffffffffffff821115611e4357611e42611ce0565b5b611e4c82611be2565b9050602081019050919050565b82818337600083830152505050565b6000611e7b611e7684611e28565b611d40565b905082815260208101848484011115611e9757611e96611e23565b5b611ea2848285611e59565b509392505050565b600082601f830112611ebf57611ebe611cdb565b5b8135611ecf848260208601611e68565b91505092915050565b600080600080600060a08688031215611ef457611ef36119ac565b5b6000611f02888289016119ff565b9550506020611f13888289016119ff565b945050604086013567ffffffffffffffff811115611f3457611f336119b1565b5b611f4088828901611df5565b935050606086013567ffffffffffffffff811115611f6157611f606119b1565b5b611f6d88828901611df5565b925050608086013567ffffffffffffffff811115611f8e57611f8d6119b1565b5b611f9a88828901611eaa565b9150509295509295909350565b60008060408385031215611fbe57611fbd6119ac565b5b6000611fcc85828601611c99565b9250506020611fdd858286016119ff565b9150509250929050565b600067ffffffffffffffff82111561200257612001611ce0565b5b602082029050602081019050919050565b600061202661202184611fe7565b611d40565b9050808382526020820190506020840283018581111561204957612048611d87565b5b835b81811015612072578061205e88826119ff565b84526020840193505060208101905061204b565b5050509392505050565b600082601f83011261209157612090611cdb565b5b81356120a1848260208601612013565b91505092915050565b600080604083850312156120c1576120c06119ac565b5b600083013567ffffffffffffffff8111156120df576120de6119b1565b5b6120eb8582860161207c565b925050602083013567ffffffffffffffff81111561210c5761210b6119b1565b5b61211885828601611df5565b9150509250929050565b600081519050919050565b600082825260208201905092915050565b6000819050602082019050919050565b61215781611a14565b82525050565b6000612169838361214e565b60208301905092915050565b6000602082019050919050565b600061218d82612122565b612197818561212d565b93506121a28361213e565b8060005b838110156121d35781516121ba888261215d565b97506121c583612175565b9250506001810190506121a6565b5085935050505092915050565b600060208201905081810360008301526121fa8184612182565b905092915050565b61220b81611b39565b811461221657600080fd5b50565b60008135905061222881612202565b92915050565b600080600060608486031215612247576122466119ac565b5b6000612255868287016119ff565b935050602061226686828701611a35565b925050604061227786828701612219565b9150509250925092565b60008060408385031215612298576122976119ac565b5b60006122a6858286016119ff565b92505060206122b785828601612219565b9150509250929050565b600080604083850312156122d8576122d76119ac565b5b60006122e6858286016119ff565b92505060206122f7858286016119ff565b9150509250929050565b600080600080600060a0868803121561231d5761231c6119ac565b5b600061232b888289016119ff565b955050602061233c888289016119ff565b945050604061234d88828901611a35565b935050606061235e88828901611a35565b925050608086013567ffffffffffffffff81111561237f5761237e6119b1565b5b61238b88828901611eaa565b9150509295509295909350565b7f4e487b7100000000000000000000000000000000000000000000000000000000600052602260045260246000fd5b600060028204905060018216806123df57607f821691505b6020821081036123f2576123f1612398565b5b50919050565b7f4e6f6e2d7472616e7366657261626c6520746f6b656e00000000000000000000600082015250565b600061242e601683611ba7565b9150612439826123f8565b602082019050919050565b6000602082019050818103600083015261245d81612421565b9050919050565b60006040820190506124796000830185611a8a565b6124866020830184611a8a565b9392505050565b7f4e487b7100000000000000000000000000000000000000000000000000000000600052603260045260246000fd5b7f4163636f756e7420697320626c61636b6c697374656400000000000000000000600082015250565b60006124f2601683611ba7565b91506124fd826124bc565b602082019050919050565b60006020820190508181036000830152612521816124e5565b9050919050565b7f4e6f7420706c6174666f726d0000000000000000000000000000000000000000600082015250565b600061255e600c83611ba7565b915061256982612528565b602082019050919050565b6000602082019050818103600083015261258d81612551565b9050919050565b61259d816119d6565b82525050565b60006020820190506125b86000830184612594565b92915050565b7f4e487b7100000000000000000000000000000000000000000000000000000000600052601160045260246000fd5b60006125f882611a14565b915061260383611a14565b925082820390508181111561261b5761261a6125be565b5b92915050565b600061262c82611a14565b915061263783611a14565b925082820190508082111561264f5761264e6125be565b5b92915050565b600060408201905061266a6000830185612594565b6126776020830184611c58565b9392505050565b60006080820190506126936000830187612594565b6126a06020830186611a8a565b6126ad6040830185611a8a565b6126ba6060830184611a8a565b95945050505050565b600060408201905081810360008301526126dd8185612182565b905081810360208301526126f18184612182565b90509392505050565b600081519050919050565b600082825260208201905092915050565b6000612721826126fa565b61272b8185612705565b935061273b818560208601611bb8565b61274481611be2565b840191505092915050565b600060a0820190506127646000830188612594565b6127716020830187612594565b61277e6040830186611a8a565b61278b6060830185611a8a565b818103608083015261279d8184612716565b90509695505050505050565b6000815190506127b881611ae0565b92915050565b6000602082840312156127d4576127d36119ac565b5b60006127e2848285016127a9565b91505092915050565b600060a0820190506128006000830188612594565b61280d6020830187612594565b818103604083015261281f8186612182565b905081810360608301526128338185612182565b905081810360808301526128478184612716565b9050969550505050505056fea2646970667358221220810f728b00ce95c87a4fbf9c9b19d1d388a2cea5610594e394b60fa562da35a864736f6c634300081c0033",
  "linkReferences": {},
  "deployedLinkReferences": {}
}