{
  "_format": "hh-sol-artifact-1",
  "contractName": "Transaction",
  "sourceName": "contracts/Transaction.sol",
  "abi": [
    {
      "inputs": [
        {
          "internalType": "address",
          "name": "_flt",
          "type": "address"
        },
        {
          "internalType": "address",
          "name": "_governance",
          "type": "address"
        }
      ],
      "stateMutability": "nonpayable",
      "type": "constructor"
    },
    {
      "inputs": [],
      "name": "ReentrancyGuardReentrantCall",
      "type": "error"
    },
    {
      "anonymous": false,
      "inputs": [
        {
          "indexed": false,
          "internalType": "uint256",
          "name": "projectId",
          "type": "uint256"
        },
        {
          "indexed": false,
          "internalType": "uint256",
          "name": "totalFunds",
          "type": "uint256"
        }
      ],
      "name": "CompaignEnded",
      "type": "event"
    },
    {
      "anonymous": false,
      "inputs": [
        {
          "indexed": false,
          "internalType": "uint256",
          "name": "projectId",
          "type": "uint256"
        },
        {
          "indexed": false,
          "internalType": "address",
          "name": "fan",
          "type": "address"
        },
        {
          "indexed": false,
          "internalType": "uint256",
          "name": "value",
          "type": "uint256"
        }
      ],
      "name": "ContributionReceived",
      "type": "event"
    },
    {
      "anonymous": false,
      "inputs": [
        {
          "indexed": false,
          "internalType": "uint256",
          "name": "projectId",
          "type": "uint256"
        },
        {
          "indexed": false,
          "internalType": "uint256",
          "name": "milestoneIndex",
          "type": "uint256"
        },
        {
          "indexed": false,
          "internalType": "uint256",
          "name": "amountReleased",
          "type": "uint256"
        }
      ],
      "name": "MilestoneReleased",
      "type": "event"
    },
    {
      "anonymous": false,
      "inputs": [
        {
          "indexed": false,
          "internalType": "uint256",
          "name": "projectId",
          "type": "uint256"
        },
        {
          "indexed": false,
          "internalType": "uint256",
          "name": "milestoneIndex",
          "type": "uint256"
        }
      ],
      "name": "MilestoneSubmitted",
      "type": "event"
    },
    {
      "anonymous": false,
      "inputs": [
        {
          "indexed": false,
          "internalType": "uint256",
          "name": "projectId",
          "type": "uint256"
        },
        {
          "indexed": false,
          "internalType": "address",
          "name": "creator",
          "type": "address"
        }
      ],
      "name": "ProjectCancelled",
      "type": "event"
    },
    {
      "anonymous": false,
      "inputs": [
        {
          "indexed": false,
          "internalType": "uint256",
          "name": "projectId",
          "type": "uint256"
        },
        {
          "indexed": false,
          "internalType": "address",
          "name": "creator",
          "type": "address"
        },
        {
          "indexed": false,
          "internalType": "uint256",
          "name": "targetFunds",
          "type": "uint256"
        },
        {
          "indexed": false,
          "internalType": "uint256",
          "name": "totalMilestones",
          "type": "uint256"
        },
        {
          "indexed": false,
          "internalType": "string",
          "name": "uri",
          "type": "string"
        }
      ],
      "name": "ProjectCreated",
      "type": "event"
    },
    {
      "anonymous": false,
      "inputs": [
        {
          "indexed": false,
          "internalType": "uint256",
          "name": "projectId",
          "type": "uint256"
        },
        {
          "indexed": false,
          "internalType": "address",
          "name": "fan",
          "type": "address"
        },
        {
          "indexed": false,
          "internalType": "uint256",
          "name": "value",
          "type": "uint256"
        }
      ],
      "name": "RefundIssued",
      "type": "event"
    },
    {
      "inputs": [],
      "name": "CREATOR_PENALTY",
      "outputs": [
        {
          "internalType": "uint256",
          "name": "",
          "type": "uint256"
        }
      ],
      "stateMutability": "view",
      "type": "function"
    },
    {
      "inputs": [],
      "name": "CREATOR_REWARD",
      "outputs": [
        {
          "internalType": "uint256",
          "name": "",
          "type": "uint256"
        }
      ],
      "stateMutability": "view",
      "type": "function"
    },
    {
      "inputs": [],
      "name": "FAN_PENALTY",
      "outputs": [
        {
          "internalType": "uint256",
          "name": "",
          "type": "uint256"
        }
      ],
      "stateMutability": "view",
      "type": "function"
    },
    {
      "inputs": [
        {
          "internalType": "uint256",
          "name": "projectId",
          "type": "uint256"
        }
      ],
      "name": "cancelProject",
      "outputs": [],
      "stateMutability": "nonpayable",
      "type": "function"
    },
    {
      "inputs": [
        {
          "internalType": "uint256",
          "name": "projectId",
          "type": "uint256"
        }
      ],
      "name": "contribute",
      "outputs": [],
      "stateMutability": "payable",
      "type": "function"
    },
    {
      "inputs": [
        {
          "internalType": "uint256",
          "name": "targetFunds",
          "type": "uint256"
        },
        {
          "internalType": "uint256",
          "name": "totalMilestones",
          "type": "uint256"
        },
        {
          "internalType": "string",
          "name": "uri",
          "type": "string"
        }
      ],
      "name": "createProject",
      "outputs": [
        {
          "internalType": "uint256",
          "name": "",
          "type": "uint256"
        }
      ],
      "stateMutability": "nonpayable",
      "type": "function"
    },
    {
      "inputs": [],
      "name": "projectCount",
      "outputs": [
        {
          "internalType": "uint256",
          "name": "",
          "type": "uint256"
        }
      ],
      "stateMutability": "view",
      "type": "function"
    },
    {
      "inputs": [
        {
          "internalType": "address",
          "name": "",
          "type": "address"
        },
        {
          "internalType": "uint256",
          "name": "",
          "type": "uint256"
        }
      ],
      "name": "projectIds",
      "outputs": [
        {
          "internalType": "uint256",
          "name": "",
          "type": "uint256"
        }
      ],
      "stateMutability": "view",
      "type": "function"
    },
    {
      "inputs": [
        {
          "internalType": "uint256",
          "name": "",
          "type": "uint256"
        }
      ],
      "name": "projects",
      "outputs": [
        {
          "internalType": "address",
          "name": "creator",
          "type": "address"
        },
        {
          "internalType": "uint256",
          "name": "targetFunds",
          "type": "uint256"
        },
        {
          "internalType": "uint256",
          "name": "totalFunds",
          "type": "uint256"
        },
        {
          "internalType": "uint256",
          "name": "currentMilestone",
          "type": "uint256"
        },
        {
          "internalType": "bool",
          "name": "campaignEnded",
          "type": "bool"
        },
        {
          "internalType": "bool",
          "name": "cancelled",
          "type": "bool"
        },
        {
          "internalType": "bool",
          "name": "completed",
          "type": "bool"
        },
        {
          "internalType": "string",
          "name": "uri",
          "type": "string"
        }
      ],
      "stateMutability": "view",
      "type": "function"
    },
    {
      "inputs": [
        {
          "internalType": "uint256",
          "name": "projectId",
          "type": "uint256"
        }
      ],
      "name": "releaseMilestone",
      "outputs": [],
      "stateMutability": "nonpayable",
      "type": "function"
    },
    {
      "inputs": [
        {
          "internalType": "uint256",
          "name": "projectId",
          "type": "uint256"
        },
        {
          "internalType": "string",
          "name": "uri",
          "type": "string"
        }
      ],
      "name": "submitMilestone",
      "outputs": [],
      "stateMutability": "nonpayable",
      "type": "function"
    },
    {
      "inputs": [
        {
          "internalType": "uint256",
          "name": "projectId",
          "type": "uint256"
        }
      ],
      "name": "voidMilestone",
      "outputs": [],
      "stateMutability": "nonpayable",
      "type": "function"
    },
    {
      "inputs": [
        {
          "internalType": "uint256",
          "name": "projectId",
          "type": "uint256"
        }
      ],
      "name": "withdraw",
      "outputs": [],
      "stateMutability": "nonpayable",
      "type": "function"
    },
    {
      "stateMutability": "payable",
      "type": "receive"
    }
  ],
  "bytecode": "0x608060405234801561001057600080fd5b50604051614c0f380380614c0f83398181016040528101906100329190610126565b600160008190555081600160006101000a81548173ffffffffffffffffffffffffffffffffffffffff021916908373ffffffffffffffffffffffffffffffffffffffff16021790555080600260006101000a81548173ffffffffffffffffffffffffffffffffffffffff021916908373ffffffffffffffffffffffffffffffffffffffff1602179055505050610166565b600080fd5b600073ffffffffffffffffffffffffffffffffffffffff82169050919050565b60006100f3826100c8565b9050919050565b610103816100e8565b811461010e57600080fd5b50565b600081519050610120816100fa565b92915050565b6000806040838503121561013d5761013c6100c3565b5b600061014b85828601610111565b925050602061015c85828601610111565b9150509250929050565b614a9a806101756000396000f3fe6080604052600436106100c65760003560e01c80633bbad4731161007f5780637c78f81f116100595780637c78f81f14610278578063c1cbbca7146102a1578063c279a8e3146102bd578063d9aa9906146102fa576100cd565b80633bbad473146101f957806340c900b614610224578063476a119b1461024f576100cd565b8063107046bd146100d257806320f7a5051461011657806324941147146101535780632e1a7d4d1461017c578063317debf5146101a557806336fbad26146101ce576100cd565b366100cd57005b600080fd5b3480156100de57600080fd5b506100f960048036038101906100f49190613206565b610325565b60405161010d98979695949392919061332e565b60405180910390f35b34801561012257600080fd5b5061013d60048036038101906101389190613418565b61043c565b60405161014a919061348c565b60405180910390f35b34801561015f57600080fd5b5061017a60048036038101906101759190613206565b6108cb565b005b34801561018857600080fd5b506101a3600480360381019061019e9190613206565b611076565b005b3480156101b157600080fd5b506101cc60048036038101906101c79190613206565b61172b565b005b3480156101da57600080fd5b506101e3611d05565b6040516101f0919061348c565b60405180910390f35b34801561020557600080fd5b5061020e611d0b565b60405161021b919061348c565b60405180910390f35b34801561023057600080fd5b50610239611d17565b604051610246919061348c565b60405180910390f35b34801561025b57600080fd5b50610276600480360381019061027191906134a7565b611d23565b005b34801561028457600080fd5b5061029f600480360381019061029a9190613206565b6122b9565b005b6102bb60048036038101906102b69190613206565b6129e0565b005b3480156102c957600080fd5b506102e460048036038101906102df9190613533565b6130fb565b6040516102f1919061348c565b60405180910390f35b34801561030657600080fd5b5061030f61312c565b60405161031c919061348c565b60405180910390f35b60046020528060005260406000206000915090508060000160009054906101000a900473ffffffffffffffffffffffffffffffffffffffff16908060010154908060020154908060040154908060050160009054906101000a900460ff16908060050160019054906101000a900460ff16908060050160029054906101000a900460ff16908060060180546103b9906135a2565b80601f01602080910402602001604051908101604052809291908181526020018280546103e5906135a2565b80156104325780601f1061040757610100808354040283529160200191610432565b820191906000526020600020905b81548152906001019060200180831161041557829003601f168201915b5050505050905088565b6000600160009054906101000a900473ffffffffffffffffffffffffffffffffffffffff1673ffffffffffffffffffffffffffffffffffffffff166391d14854600160009054906101000a900473ffffffffffffffffffffffffffffffffffffffff1673ffffffffffffffffffffffffffffffffffffffff166319afe4636040518163ffffffff1660e01b8152600401602060405180830381865afa1580156104e9573d6000803e3d6000fd5b505050506040513d601f19601f8201168201806040525081019061050d9190613609565b336040518363ffffffff1660e01b815260040161052b929190613645565b602060405180830381865afa158015610548573d6000803e3d6000fd5b505050506040513d601f19601f8201168201806040525081019061056c919061369a565b156105ac576040517f08c379a00000000000000000000000000000000000000000000000000000000081526004016105a390613713565b60405180910390fd5b6105b4613138565b600085116105f7576040517f08c379a00000000000000000000000000000000000000000000000000000000081526004016105ee9061377f565b60405180910390fd5b6000841161063a576040517f08c379a0000000000000000000000000000000000000000000000000000000008152600401610631906137eb565b60405180910390fd5b60008383905011610680576040517f08c379a000000000000000000000000000000000000000000000000000000000815260040161067790613857565b60405180910390fd5b600060046000600360008154610695906138a6565b91905081905581526020019081526020016000209050338160000160006101000a81548173ffffffffffffffffffffffffffffffffffffffff021916908373ffffffffffffffffffffffffffffffffffffffff160217905550858160010181905550838382600601918261070a929190613ad4565b5060005b858110156107c057816003016040518060600160405280600060ff1681526020016000815260200160405180602001604052806000815250815250908060018154018082558091505060019003906000526020600020906003020160009091909190915060008201518160000160006101000a81548160ff021916908360ff1602179055506020820151816001015560408201518160020190816107b29190613ba4565b50505080600101905061070e565b508481600301805490501461080a576040517f08c379a000000000000000000000000000000000000000000000000000000000815260040161080190613cc2565b60405180910390fd5b600560003373ffffffffffffffffffffffffffffffffffffffff1673ffffffffffffffffffffffffffffffffffffffff16815260200190815260200160002060035490806001815401808255809150506001900390600052602060002001600090919091909150557f2683bcb5652f1e01abe86a961922fdbe9ea47e4dd2595b28ad53ee611a19b2ea60035433888888886040516108ad96959493929190613d1e565b60405180910390a16003549150506108c361317e565b949350505050565b600160009054906101000a900473ffffffffffffffffffffffffffffffffffffffff1673ffffffffffffffffffffffffffffffffffffffff166391d14854600160009054906101000a900473ffffffffffffffffffffffffffffffffffffffff1673ffffffffffffffffffffffffffffffffffffffff166319afe4636040518163ffffffff1660e01b8152600401602060405180830381865afa158015610976573d6000803e3d6000fd5b505050506040513d601f19601f8201168201806040525081019061099a9190613609565b336040518363ffffffff1660e01b81526004016109b8929190613645565b602060405180830381865afa1580156109d5573d6000803e3d6000fd5b505050506040513d601f19601f820116820180604052508101906109f9919061369a565b15610a39576040517f08c379a0000000000000000000000000000000000000000000000000000000008152600401610a3090613713565b60405180910390fd5b610a41613138565b8060008103610a85576040517f08c379a0000000000000000000000000000000000000000000000000000000008152600401610a7c90613dc6565b60405180910390fd5b600354811115610aca576040517f08c379a0000000000000000000000000000000000000000000000000000000008152600401610ac190613e32565b60405180910390fd5b60006004600084815260200190815260200160002090508060000160009054906101000a900473ffffffffffffffffffffffffffffffffffffffff1673ffffffffffffffffffffffffffffffffffffffff163373ffffffffffffffffffffffffffffffffffffffff1614610b73576040517f08c379a0000000000000000000000000000000000000000000000000000000008152600401610b6a90613e9e565b60405180910390fd5b8060050160019054906101000a900460ff1615610bc5576040517f08c379a0000000000000000000000000000000000000000000000000000000008152600401610bbc90613f0a565b60405180910390fd5b6000816004015414610c0c576040517f08c379a0000000000000000000000000000000000000000000000000000000008152600401610c0390613f76565b60405180910390fd5b600381600301826004015481548110610c2857610c27613f96565b5b906000526020600020906003020160000160009054906101000a900460ff1660ff1603610c8a576040517f08c379a0000000000000000000000000000000000000000000000000000000008152600401610c8190614037565b60405180910390fd5b60018160050160006101000a81548160ff02191690831515021790555060018160050160016101000a81548160ff0219169083151502179055507fab770a3208518c5616af297c14f45e2e7294dffbb8b13fff5213874b7a6420728333604051610cf5929190614057565b60405180910390a1600160009054906101000a900473ffffffffffffffffffffffffffffffffffffffff1673ffffffffffffffffffffffffffffffffffffffff166376fd4fdf8260000160009054906101000a900473ffffffffffffffffffffffffffffffffffffffff16674563918244f4000060016040518463ffffffff1660e01b8152600401610d8993929190614080565b600060405180830381600087803b158015610da357600080fd5b505af1158015610db7573d6000803e3d6000fd5b5050505060005b8160070180549050811015611058576000826008016000846007018481548110610deb57610dea613f96565b5b9060005260206000200160009054906101000a900473ffffffffffffffffffffffffffffffffffffffff1673ffffffffffffffffffffffffffffffffffffffff1673ffffffffffffffffffffffffffffffffffffffff168152602001908152602001600020549050600081111561104c576000836008016000856007018581548110610e7a57610e79613f96565b5b9060005260206000200160009054906101000a900473ffffffffffffffffffffffffffffffffffffffff1673ffffffffffffffffffffffffffffffffffffffff1673ffffffffffffffffffffffffffffffffffffffff168152602001908152602001600020819055506000836007018381548110610efb57610efa613f96565b5b9060005260206000200160009054906101000a900473ffffffffffffffffffffffffffffffffffffffff1673ffffffffffffffffffffffffffffffffffffffff1682604051610f49906140e8565b60006040518083038185875af1925050503d8060008114610f86576040519150601f19603f3d011682016040523d82523d6000602084013e610f8b565b606091505b5050905080610fcf576040517f08c379a0000000000000000000000000000000000000000000000000000000008152600401610fc690614149565b60405180910390fd5b7f7a482fdeb6bc9a1376f597068a214a7a39472bb2eff1b8cad21ba04f49ddca1b8685600701858154811061100757611006613f96565b5b9060005260206000200160009054906101000a900473ffffffffffffffffffffffffffffffffffffffff168460405161104293929190614169565b60405180910390a1505b50806001019050610dbe565b508060070160006110699190613188565b505061107361317e565b50565b600160009054906101000a900473ffffffffffffffffffffffffffffffffffffffff1673ffffffffffffffffffffffffffffffffffffffff166391d14854600160009054906101000a900473ffffffffffffffffffffffffffffffffffffffff1673ffffffffffffffffffffffffffffffffffffffff166319afe4636040518163ffffffff1660e01b8152600401602060405180830381865afa158015611121573d6000803e3d6000fd5b505050506040513d601f19601f820116820180604052508101906111459190613609565b336040518363ffffffff1660e01b8152600401611163929190613645565b602060405180830381865afa158015611180573d6000803e3d6000fd5b505050506040513d601f19601f820116820180604052508101906111a4919061369a565b156111e4576040517f08c379a00000000000000000000000000000000000000000000000000000000081526004016111db90613713565b60405180910390fd5b6111ec613138565b8060008103611230576040517f08c379a000000000000000000000000000000000000000000000000000000000815260040161122790613dc6565b60405180910390fd5b600354811115611275576040517f08c379a000000000000000000000000000000000000000000000000000000000815260040161126c90613e32565b60405180910390fd5b60006004600084815260200190815260200160002090508060050160019054906101000a900460ff16156112de576040517f08c379a00000000000000000000000000000000000000000000000000000000081526004016112d5906141ec565b60405180910390fd5b8060050160009054906101000a900460ff1615611330576040517f08c379a000000000000000000000000000000000000000000000000000000000815260040161132790614258565b60405180910390fd5b60008160080160003373ffffffffffffffffffffffffffffffffffffffff1673ffffffffffffffffffffffffffffffffffffffff168152602001908152602001600020549050600081116113b9576040517f08c379a00000000000000000000000000000000000000000000000000000000081526004016113b0906142c4565b60405180910390fd5b60003373ffffffffffffffffffffffffffffffffffffffff16826040516113df906140e8565b60006040518083038185875af1925050503d806000811461141c576040519150601f19603f3d011682016040523d82523d6000602084013e611421565b606091505b5050905080611465576040517f08c379a000000000000000000000000000000000000000000000000000000000815260040161145c90614330565b60405180910390fd5b60008360080160003373ffffffffffffffffffffffffffffffffffffffff1673ffffffffffffffffffffffffffffffffffffffff1681526020019081526020016000208190555060008360070180549050905060005b8181101561163a573373ffffffffffffffffffffffffffffffffffffffff168560070182815481106114f0576114ef613f96565b5b9060005260206000200160009054906101000a900473ffffffffffffffffffffffffffffffffffffffff1673ffffffffffffffffffffffffffffffffffffffff160361162f57846007016001836115479190614350565b8154811061155857611557613f96565b5b9060005260206000200160009054906101000a900473ffffffffffffffffffffffffffffffffffffffff1685600701828154811061159957611598613f96565b5b9060005260206000200160006101000a81548173ffffffffffffffffffffffffffffffffffffffff021916908373ffffffffffffffffffffffffffffffffffffffff160217905550846007018054806115f5576115f4614384565b5b6001900381819060005260206000200160006101000a81549073ffffffffffffffffffffffffffffffffffffffff0219169055905561163a565b8060010190506114bb565b507f7a482fdeb6bc9a1376f597068a214a7a39472bb2eff1b8cad21ba04f49ddca1b86338560405161166e93929190614169565b60405180910390a1600160009054906101000a900473ffffffffffffffffffffffffffffffffffffffff1673ffffffffffffffffffffffffffffffffffffffff166376fd4fdf3367016345785d8a0000866116c991906143b3565b60006040518463ffffffff1660e01b81526004016116e993929190614080565b600060405180830381600087803b15801561170357600080fd5b505af1158015611717573d6000803e3d6000fd5b50505050505050505061172861317e565b50565b600160009054906101000a900473ffffffffffffffffffffffffffffffffffffffff1673ffffffffffffffffffffffffffffffffffffffff166391d148546000336040518363ffffffff1660e01b815260040161178992919061442f565b602060405180830381865afa1580156117a6573d6000803e3d6000fd5b505050506040513d601f19601f820116820180604052508101906117ca919061369a565b611809576040517f08c379a0000000000000000000000000000000000000000000000000000000008152600401611800906144a4565b60405180910390fd5b806000810361184d576040517f08c379a000000000000000000000000000000000000000000000000000000000815260040161184490613dc6565b60405180910390fd5b600354811115611892576040517f08c379a000000000000000000000000000000000000000000000000000000000815260040161188990613e32565b60405180910390fd5b60006004600084815260200190815260200160002090508060050160009054906101000a900460ff166118fa576040517f08c379a00000000000000000000000000000000000000000000000000000000081526004016118f190614510565b60405180910390fd5b8060050160019054906101000a900460ff161561194c576040517f08c379a000000000000000000000000000000000000000000000000000000000815260040161194390613f0a565b60405180910390fd5b8060050160029054906101000a900460ff161561199e576040517f08c379a00000000000000000000000000000000000000000000000000000000081526004016119959061457c565b60405180910390fd5b6003816003018260040154815481106119ba576119b9613f96565b5b906000526020600020906003020160000160009054906101000a900460ff1660ff1614611a1c576040517f08c379a0000000000000000000000000000000000000000000000000000000008152600401611a139061460e565b60405180910390fd5b600181600301826004015481548110611a3857611a37613f96565b5b906000526020600020906003020160000160006101000a81548160ff021916908360ff160217905550600081600301805490508260010154611a7a919061465d565b905080826002016000828254611a909190614350565b92505081905550600082600201541015611adf576040517f08c379a0000000000000000000000000000000000000000000000000000000008152600401611ad6906146da565b60405180910390fd5b60008260000160009054906101000a900473ffffffffffffffffffffffffffffffffffffffff1673ffffffffffffffffffffffffffffffffffffffff1682604051611b29906140e8565b60006040518083038185875af1925050503d8060008114611b66576040519150601f19603f3d011682016040523d82523d6000602084013e611b6b565b606091505b5050905080611baf576040517f08c379a0000000000000000000000000000000000000000000000000000000008152600401611ba690614746565b60405180910390fd5b7fd33fcd27cbfb73a2d9058c968b560ccb306500bf536133802048489ecc7355e985846004015484604051611be693929190614766565b60405180910390a1826004015483600301805490501115611c22576001836004016000828254611c1691906143b3565b92505081905550611c40565b60018360050160026101000a81548160ff0219169083151502179055505b600160009054906101000a900473ffffffffffffffffffffffffffffffffffffffff1673ffffffffffffffffffffffffffffffffffffffff1663d1a1beb48460000160009054906101000a900473ffffffffffffffffffffffffffffffffffffffff16678ac7230489e8000060016040518463ffffffff1660e01b8152600401611ccc93929190614080565b600060405180830381600087803b158015611ce657600080fd5b505af1158015611cfa573d6000803e3d6000fd5b505050505050505050565b60035481565b67016345785d8a000081565b678ac7230489e8000081565b600160009054906101000a900473ffffffffffffffffffffffffffffffffffffffff1673ffffffffffffffffffffffffffffffffffffffff166391d14854600160009054906101000a900473ffffffffffffffffffffffffffffffffffffffff1673ffffffffffffffffffffffffffffffffffffffff166319afe4636040518163ffffffff1660e01b8152600401602060405180830381865afa158015611dce573d6000803e3d6000fd5b505050506040513d601f19601f82011682018060405250810190611df29190613609565b336040518363ffffffff1660e01b8152600401611e10929190613645565b602060405180830381865afa158015611e2d573d6000803e3d6000fd5b505050506040513d601f19601f82011682018060405250810190611e51919061369a565b15611e91576040517f08c379a0000000000000000000000000000000000000000000000000000000008152600401611e8890613713565b60405180910390fd5b611e99613138565b8260008103611edd576040517f08c379a0000000000000000000000000000000000000000000000000000000008152600401611ed490613dc6565b60405180910390fd5b600354811115611f22576040517f08c379a0000000000000000000000000000000000000000000000000000000008152600401611f1990613e32565b60405180910390fd5b60006004600086815260200190815260200160002090508060000160009054906101000a900473ffffffffffffffffffffffffffffffffffffffff1673ffffffffffffffffffffffffffffffffffffffff163373ffffffffffffffffffffffffffffffffffffffff1614611fcb576040517f08c379a0000000000000000000000000000000000000000000000000000000008152600401611fc290613e9e565b60405180910390fd5b8060050160009054906101000a900460ff1661201c576040517f08c379a000000000000000000000000000000000000000000000000000000000815260040161201390614510565b60405180910390fd5b8060050160019054906101000a900460ff161561206e576040517f08c379a000000000000000000000000000000000000000000000000000000000815260040161206590613f0a565b60405180910390fd5b8060050160029054906101000a900460ff16156120c0576040517f08c379a00000000000000000000000000000000000000000000000000000000081526004016120b79061457c565b60405180910390fd5b6003816003018260040154815481106120dc576120db613f96565b5b906000526020600020906003020160000160009054906101000a900460ff1660ff160361213e576040517f08c379a000000000000000000000000000000000000000000000000000000000815260040161213590614037565b60405180910390fd5b60008160030182600401548154811061215a57612159613f96565b5b9060005260206000209060030201905060038160000160006101000a81548160ff021916908360ff160217905550848482600201918261219b929190613ad4565b507f26cf581e2709e0615164af15a371b2dd10fb48d5baed91e9eacd557633c16bcb8683600401546040516121d192919061479d565b60405180910390a1600260009054906101000a900473ffffffffffffffffffffffffffffffffffffffff1673ffffffffffffffffffffffffffffffffffffffff1663476b13e4878460000160009054906101000a900473ffffffffffffffffffffffffffffffffffffffff1688886040518563ffffffff1660e01b815260040161225e94939291906147c6565b6020604051808303816000875af115801561227d573d6000803e3d6000fd5b505050506040513d601f19601f820116820180604052508101906122a1919061481b565b81600101819055505050506122b461317e565b505050565b600160009054906101000a900473ffffffffffffffffffffffffffffffffffffffff1673ffffffffffffffffffffffffffffffffffffffff166391d148546000336040518363ffffffff1660e01b815260040161231792919061442f565b602060405180830381865afa158015612334573d6000803e3d6000fd5b505050506040513d601f19601f82011682018060405250810190612358919061369a565b612397576040517f08c379a000000000000000000000000000000000000000000000000000000000815260040161238e906144a4565b60405180910390fd5b80600081036123db576040517f08c379a00000000000000000000000000000000000000000000000000000000081526004016123d290613dc6565b60405180910390fd5b600354811115612420576040517f08c379a000000000000000000000000000000000000000000000000000000000815260040161241790613e32565b60405180910390fd5b60006004600084815260200190815260200160002090508060050160009054906101000a900460ff16612488576040517f08c379a000000000000000000000000000000000000000000000000000000000815260040161247f90614510565b60405180910390fd5b8060050160019054906101000a900460ff16156124da576040517f08c379a00000000000000000000000000000000000000000000000000000000081526004016124d190613f0a565b60405180910390fd5b8060050160029054906101000a900460ff161561252c576040517f08c379a00000000000000000000000000000000000000000000000000000000081526004016125239061457c565b60405180910390fd5b60038160030182600401548154811061254857612547613f96565b5b906000526020600020906003020160000160009054906101000a900460ff1660ff16146125aa576040517f08c379a00000000000000000000000000000000000000000000000000000000081526004016125a19061460e565b60405180910390fd5b6002816003018260040154815481106125c6576125c5613f96565b5b906000526020600020906003020160000160006101000a81548160ff021916908360ff16021790555080600401548160030180549050111561262357600181600401600082825461261791906143b3565b92505081905550612641565b60018160050160026101000a81548160ff0219169083151502179055505b600160009054906101000a900473ffffffffffffffffffffffffffffffffffffffff1673ffffffffffffffffffffffffffffffffffffffff166376fd4fdf8260000160009054906101000a900473ffffffffffffffffffffffffffffffffffffffff16674563918244f4000060016040518463ffffffff1660e01b81526004016126cd93929190614080565b600060405180830381600087803b1580156126e757600080fd5b505af11580156126fb573d6000803e3d6000fd5b5050505060005b81600701805490508110156129da576000826003018054905083600801600085600701858154811061273757612736613f96565b5b9060005260206000200160009054906101000a900473ffffffffffffffffffffffffffffffffffffffff1673ffffffffffffffffffffffffffffffffffffffff1673ffffffffffffffffffffffffffffffffffffffff168152602001908152602001600020546127a7919061465d565b905060008111156129ce57808360020160008282546127c69190614350565b92505081905550808360080160008560070185815481106127ea576127e9613f96565b5b9060005260206000200160009054906101000a900473ffffffffffffffffffffffffffffffffffffffff1673ffffffffffffffffffffffffffffffffffffffff1673ffffffffffffffffffffffffffffffffffffffff168152602001908152602001600020600082825461285e9190614350565b92505081905550600083600701838154811061287d5761287c613f96565b5b9060005260206000200160009054906101000a900473ffffffffffffffffffffffffffffffffffffffff1673ffffffffffffffffffffffffffffffffffffffff16826040516128cb906140e8565b60006040518083038185875af1925050503d8060008114612908576040519150601f19603f3d011682016040523d82523d6000602084013e61290d565b606091505b5050905080612951576040517f08c379a000000000000000000000000000000000000000000000000000000000815260040161294890614149565b60405180910390fd5b7f7a482fdeb6bc9a1376f597068a214a7a39472bb2eff1b8cad21ba04f49ddca1b8685600701858154811061298957612988613f96565b5b9060005260206000200160009054906101000a900473ffffffffffffffffffffffffffffffffffffffff16846040516129c493929190614169565b60405180910390a1505b50806001019050612702565b50505050565b600160009054906101000a900473ffffffffffffffffffffffffffffffffffffffff1673ffffffffffffffffffffffffffffffffffffffff166391d14854600160009054906101000a900473ffffffffffffffffffffffffffffffffffffffff1673ffffffffffffffffffffffffffffffffffffffff166319afe4636040518163ffffffff1660e01b8152600401602060405180830381865afa158015612a8b573d6000803e3d6000fd5b505050506040513d601f19601f82011682018060405250810190612aaf9190613609565b336040518363ffffffff1660e01b8152600401612acd929190613645565b602060405180830381865afa158015612aea573d6000803e3d6000fd5b505050506040513d601f19601f82011682018060405250810190612b0e919061369a565b15612b4e576040517f08c379a0000000000000000000000000000000000000000000000000000000008152600401612b4590613713565b60405180910390fd5b612b56613138565b8060008103612b9a576040517f08c379a0000000000000000000000000000000000000000000000000000000008152600401612b9190613dc6565b60405180910390fd5b600354811115612bdf576040517f08c379a0000000000000000000000000000000000000000000000000000000008152600401612bd690613e32565b60405180910390fd5b60003411612c22576040517f08c379a0000000000000000000000000000000000000000000000000000000008152600401612c1990614894565b60405180910390fd5b60006004600084815260200190815260200160002090508060050160019054906101000a900460ff1615612c8b576040517f08c379a0000000000000000000000000000000000000000000000000000000008152600401612c82906141ec565b60405180910390fd5b8060050160009054906101000a900460ff1615612cdd576040517f08c379a0000000000000000000000000000000000000000000000000000000008152600401612cd490614900565b60405180910390fd5b8060000160009054906101000a900473ffffffffffffffffffffffffffffffffffffffff1673ffffffffffffffffffffffffffffffffffffffff163373ffffffffffffffffffffffffffffffffffffffff1603612d6f576040517f08c379a0000000000000000000000000000000000000000000000000000000008152600401612d669061496c565b60405180910390fd5b600081600201548260010154612d859190614350565b905060008111612dca576040517f08c379a0000000000000000000000000000000000000000000000000000000008152600401612dc1906149d8565b60405180910390fd5b600034905081341115612e935760003373ffffffffffffffffffffffffffffffffffffffff168383612dfc9190614350565b604051612e08906140e8565b60006040518083038185875af1925050503d8060008114612e45576040519150601f19603f3d011682016040523d82523d6000602084013e612e4a565b606091505b5050905080612e8e576040517f08c379a0000000000000000000000000000000000000000000000000000000008152600401612e8590614a44565b60405180910390fd5b829150505b60008360080160003373ffffffffffffffffffffffffffffffffffffffff1673ffffffffffffffffffffffffffffffffffffffff1681526020019081526020016000205403612f425782600701339080600181540180825580915050600190039060005260206000200160009091909190916101000a81548173ffffffffffffffffffffffffffffffffffffffff021916908373ffffffffffffffffffffffffffffffffffffffff1602179055505b80836002016000828254612f5691906143b3565b92505081905550808360080160003373ffffffffffffffffffffffffffffffffffffffff1673ffffffffffffffffffffffffffffffffffffffff1681526020019081526020016000206000828254612fae91906143b3565b925050819055507f865c884d49c8cecaef108efb20f7d282f26c0f9b0d24dd48e5592d4e02ec658d853383604051612fe893929190614169565b60405180910390a1600160009054906101000a900473ffffffffffffffffffffffffffffffffffffffff1673ffffffffffffffffffffffffffffffffffffffff1663d1a1beb4333460006040518463ffffffff1660e01b815260040161305093929190614080565b600060405180830381600087803b15801561306a57600080fd5b505af115801561307e573d6000803e3d6000fd5b5050505082600101548360020154106130ec5760018360050160006101000a81548160ff0219169083151502179055507fb6dc8af7c23da73bc1a3b730dcb9ebee27064b9451c486af61939e917bb1bc0e8584600201546040516130e392919061479d565b60405180910390a15b505050506130f861317e565b50565b6005602052816000526040600020818154811061311757600080fd5b90600052602060002001600091509150505481565b674563918244f4000081565b600260005403613174576040517f3ee5aeb500000000000000000000000000000000000000000000000000000000815260040160405180910390fd5b6002600081905550565b6001600081905550565b50805460008255906000526020600020908101906131a691906131a9565b50565b5b808211156131c25760008160009055506001016131aa565b5090565b600080fd5b600080fd5b6000819050919050565b6131e3816131d0565b81146131ee57600080fd5b50565b600081359050613200816131da565b92915050565b60006020828403121561321c5761321b6131c6565b5b600061322a848285016131f1565b91505092915050565b600073ffffffffffffffffffffffffffffffffffffffff82169050919050565b600061325e82613233565b9050919050565b61326e81613253565b82525050565b61327d816131d0565b82525050565b60008115159050919050565b61329881613283565b82525050565b600081519050919050565b600082825260208201905092915050565b60005b838110156132d85780820151818401526020810190506132bd565b60008484015250505050565b6000601f19601f8301169050919050565b60006133008261329e565b61330a81856132a9565b935061331a8185602086016132ba565b613323816132e4565b840191505092915050565b600061010082019050613344600083018b613265565b613351602083018a613274565b61335e6040830189613274565b61336b6060830188613274565b613378608083018761328f565b61338560a083018661328f565b61339260c083018561328f565b81810360e08301526133a481846132f5565b90509998505050505050505050565b600080fd5b600080fd5b600080fd5b60008083601f8401126133d8576133d76133b3565b5b8235905067ffffffffffffffff8111156133f5576133f46133b8565b5b602083019150836001820283011115613411576134106133bd565b5b9250929050565b60008060008060608587031215613432576134316131c6565b5b6000613440878288016131f1565b9450506020613451878288016131f1565b935050604085013567ffffffffffffffff811115613472576134716131cb565b5b61347e878288016133c2565b925092505092959194509250565b60006020820190506134a16000830184613274565b92915050565b6000806000604084860312156134c0576134bf6131c6565b5b60006134ce868287016131f1565b935050602084013567ffffffffffffffff8111156134ef576134ee6131cb565b5b6134fb868287016133c2565b92509250509250925092565b61351081613253565b811461351b57600080fd5b50565b60008135905061352d81613507565b92915050565b6000806040838503121561354a576135496131c6565b5b60006135588582860161351e565b9250506020613569858286016131f1565b9150509250929050565b7f4e487b7100000000000000000000000000000000000000000000000000000000600052602260045260246000fd5b600060028204905060018216806135ba57607f821691505b6020821081036135cd576135cc613573565b5b50919050565b6000819050919050565b6135e6816135d3565b81146135f157600080fd5b50565b600081519050613603816135dd565b92915050565b60006020828403121561361f5761361e6131c6565b5b600061362d848285016135f4565b91505092915050565b61363f816135d3565b82525050565b600060408201905061365a6000830185613636565b6136676020830184613265565b9392505050565b61367781613283565b811461368257600080fd5b50565b6000815190506136948161366e565b92915050565b6000602082840312156136b0576136af6131c6565b5b60006136be84828501613685565b91505092915050565b7f426c61636b6c6973746564206163636f756e7400000000000000000000000000600082015250565b60006136fd6013836132a9565b9150613708826136c7565b602082019050919050565b6000602082019050818103600083015261372c816136f0565b9050919050565b7f46756e64696e6720746172676574206d757374206265203e2030000000000000600082015250565b6000613769601a836132a9565b915061377482613733565b602082019050919050565b600060208201905081810360008301526137988161375c565b9050919050565b7f546f74616c206d696c6573746f6e6573206d757374206265203e203000000000600082015250565b60006137d5601c836132a9565b91506137e08261379f565b602082019050919050565b60006020820190508181036000830152613804816137c8565b9050919050565b7f49504653205552492063616e6e6f7420626520656d7074790000000000000000600082015250565b60006138416018836132a9565b915061384c8261380b565b602082019050919050565b6000602082019050818103600083015261387081613834565b9050919050565b7f4e487b7100000000000000000000000000000000000000000000000000000000600052601160045260246000fd5b60006138b1826131d0565b91507fffffffffffffffffffffffffffffffffffffffffffffffffffffffffffffffff82036138e3576138e2613877565b5b600182019050919050565b600082905092915050565b7f4e487b7100000000000000000000000000000000000000000000000000000000600052604160045260246000fd5b60008190508160005260206000209050919050565b60006020601f8301049050919050565b600082821b905092915050565b60006008830261398a7fffffffffffffffffffffffffffffffffffffffffffffffffffffffffffffffff8261394d565b613994868361394d565b95508019841693508086168417925050509392505050565b6000819050919050565b60006139d16139cc6139c7846131d0565b6139ac565b6131d0565b9050919050565b6000819050919050565b6139eb836139b6565b6139ff6139f7826139d8565b84845461395a565b825550505050565b600090565b613a14613a07565b613a1f8184846139e2565b505050565b5b81811015613a4357613a38600082613a0c565b600181019050613a25565b5050565b601f821115613a8857613a5981613928565b613a628461393d565b81016020851015613a71578190505b613a85613a7d8561393d565b830182613a24565b50505b505050565b600082821c905092915050565b6000613aab60001984600802613a8d565b1980831691505092915050565b6000613ac48383613a9a565b9150826002028217905092915050565b613ade83836138ee565b67ffffffffffffffff811115613af757613af66138f9565b5b613b0182546135a2565b613b0c828285613a47565b6000601f831160018114613b3b5760008415613b29578287013590505b613b338582613ab8565b865550613b9b565b601f198416613b4986613928565b60005b82811015613b7157848901358255600182019150602085019450602081019050613b4c565b86831015613b8e5784890135613b8a601f891682613a9a565b8355505b6001600288020188555050505b50505050505050565b613bad8261329e565b67ffffffffffffffff811115613bc657613bc56138f9565b5b613bd082546135a2565b613bdb828285613a47565b600060209050601f831160018114613c0e5760008415613bfc578287015190505b613c068582613ab8565b865550613c6e565b601f198416613c1c86613928565b60005b82811015613c4457848901518255600182019150602085019450602081019050613c1f565b86831015613c615784890151613c5d601f891682613a9a565b8355505b6001600288020188555050505b505050505050565b7f57726f6e672061737369676e206c6f6769630000000000000000000000000000600082015250565b6000613cac6012836132a9565b9150613cb782613c76565b602082019050919050565b60006020820190508181036000830152613cdb81613c9f565b9050919050565b82818337600083830152505050565b6000613cfd83856132a9565b9350613d0a838584613ce2565b613d13836132e4565b840190509392505050565b600060a082019050613d336000830189613274565b613d406020830188613265565b613d4d6040830187613274565b613d5a6060830186613274565b8181036080830152613d6d818486613cf1565b9050979650505050505050565b7f5265736572766564204944000000000000000000000000000000000000000000600082015250565b6000613db0600b836132a9565b9150613dbb82613d7a565b602082019050919050565b60006020820190508181036000830152613ddf81613da3565b9050919050565b7f4e6f20737563682070726f6a6563740000000000000000000000000000000000600082015250565b6000613e1c600f836132a9565b9150613e2782613de6565b602082019050919050565b60006020820190508181036000830152613e4b81613e0f565b9050919050565b7f4e6f74207468652070726f6a6563742063726561746f72000000000000000000600082015250565b6000613e886017836132a9565b9150613e9382613e52565b602082019050919050565b60006020820190508181036000830152613eb781613e7b565b9050919050565b7f50726f6a65637420616c72656164792063616e63656c6c656400000000000000600082015250565b6000613ef46019836132a9565b9150613eff82613ebe565b602082019050919050565b60006020820190508181036000830152613f2381613ee7565b9050919050565b7f50726f6a65637420686173206d696c6573746f6e6520766f7465640000000000600082015250565b6000613f60601b836132a9565b9150613f6b82613f2a565b602082019050919050565b60006020820190508181036000830152613f8f81613f53565b9050919050565b7f4e487b7100000000000000000000000000000000000000000000000000000000600052603260045260246000fd5b7f43757272656e74206d696c6573746f6e6520616c7265616479207375626d697460008201527f7465640000000000000000000000000000000000000000000000000000000000602082015250565b60006140216023836132a9565b915061402c82613fc5565b604082019050919050565b6000602082019050818103600083015261405081614014565b9050919050565b600060408201905061406c6000830185613274565b6140796020830184613265565b9392505050565b60006060820190506140956000830186613265565b6140a26020830185613274565b6140af604083018461328f565b949350505050565b600081905092915050565b50565b60006140d26000836140b7565b91506140dd826140c2565b600082019050919050565b60006140f3826140c5565b9150819050919050565b7f526566756e64206661696c656400000000000000000000000000000000000000600082015250565b6000614133600d836132a9565b915061413e826140fd565b602082019050919050565b6000602082019050818103600083015261416281614126565b9050919050565b600060608201905061417e6000830186613274565b61418b6020830185613265565b6141986040830184613274565b949350505050565b7f50726f6a6563742063616e63656c6c6564000000000000000000000000000000600082015250565b60006141d66011836132a9565b91506141e1826141a0565b602082019050919050565b60006020820190508181036000830152614205816141c9565b9050919050565b7f43616d706169676e20656e6465642c2063616e6e6f7420776974686472617700600082015250565b6000614242601f836132a9565b915061424d8261420c565b602082019050919050565b6000602082019050818103600083015261427181614235565b9050919050565b7f4e6f20636f6e747269627574696f6e0000000000000000000000000000000000600082015250565b60006142ae600f836132a9565b91506142b982614278565b602082019050919050565b600060208201905081810360008301526142dd816142a1565b9050919050565b7f455448207472616e73666572206661696c656400000000000000000000000000600082015250565b600061431a6013836132a9565b9150614325826142e4565b602082019050919050565b600060208201905081810360008301526143498161430d565b9050919050565b600061435b826131d0565b9150614366836131d0565b925082820390508181111561437e5761437d613877565b5b92915050565b7f4e487b7100000000000000000000000000000000000000000000000000000000600052603160045260246000fd5b60006143be826131d0565b91506143c9836131d0565b92508282019050808211156143e1576143e0613877565b5b92915050565b6000819050919050565b60008160001b9050919050565b600061441961441461440f846143e7565b6143f1565b6135d3565b9050919050565b614429816143fe565b82525050565b60006040820190506144446000830185614420565b6144516020830184613265565b9392505050565b7f4e6f7420706c6174666f726d0000000000000000000000000000000000000000600082015250565b600061448e600c836132a9565b915061449982614458565b602082019050919050565b600060208201905081810360008301526144bd81614481565b9050919050565b7f43616d706169676e206e6f7420656e6465640000000000000000000000000000600082015250565b60006144fa6012836132a9565b9150614505826144c4565b602082019050919050565b60006020820190508181036000830152614529816144ed565b9050919050565b7f50726f6a65637420616c726561647920636f6d706c6574656400000000000000600082015250565b60006145666019836132a9565b915061457182614530565b602082019050919050565b6000602082019050818103600083015261459581614559565b9050919050565b7f43757272656e74206d696c6573746f6e65206973206e6f7420696e207375626d60008201527f6974746564207374617465000000000000000000000000000000000000000000602082015250565b60006145f8602b836132a9565b91506146038261459c565b604082019050919050565b60006020820190508181036000830152614627816145eb565b9050919050565b7f4e487b7100000000000000000000000000000000000000000000000000000000600052601260045260246000fd5b6000614668826131d0565b9150614673836131d0565b9250826146835761468261462e565b5b828204905092915050565b7f57726f6e672070726f6a65637420746f74616c2066756e647300000000000000600082015250565b60006146c46019836132a9565b91506146cf8261468e565b602082019050919050565b600060208201905081810360008301526146f3816146b7565b9050919050565b7f5472616e7366657220746f2063726561746f72206661696c6564000000000000600082015250565b6000614730601a836132a9565b915061473b826146fa565b602082019050919050565b6000602082019050818103600083015261475f81614723565b9050919050565b600060608201905061477b6000830186613274565b6147886020830185613274565b6147956040830184613274565b949350505050565b60006040820190506147b26000830185613274565b6147bf6020830184613274565b9392505050565b60006060820190506147db6000830187613274565b6147e86020830186613265565b81810360408301526147fb818486613cf1565b905095945050505050565b600081519050614815816131da565b92915050565b600060208284031215614831576148306131c6565b5b600061483f84828501614806565b91505092915050565b7f436f6e747269627574696f6e206d757374206265203e20300000000000000000600082015250565b600061487e6018836132a9565b915061488982614848565b602082019050919050565b600060208201905081810360008301526148ad81614871565b9050919050565b7f43616d706169676e20616c726561647920656e64656400000000000000000000600082015250565b60006148ea6016836132a9565b91506148f5826148b4565b602082019050919050565b60006020820190508181036000830152614919816148dd565b9050919050565b7f43616e6e6f7420636f6e7472696275746520746f206f776e2070726f6a656374600082015250565b60006149566020836132a9565b915061496182614920565b602082019050919050565b6000602082019050818103600083015261498581614949565b9050919050565b7f46756e64696e672074617267657420616c726561647920726561636865640000600082015250565b60006149c2601e836132a9565b91506149cd8261498c565b602082019050919050565b600060208201905081810360008301526149f1816149b5565b9050919050565b7f45544820726566756e64206661696c6564000000000000000000000000000000600082015250565b6000614a2e6011836132a9565b9150614a39826149f8565b602082019050919050565b60006020820190508181036000830152614a5d81614a21565b905091905056fea2646970667358221220422735a23d57a268ad65ab94a0040dbb44784813a2e758da98bc93046b521e7364736f6c634300081c0033",
  "linkReferences": {},
  "deployedLinkReferences": {}
}