{
  "_format": "hh-sol-artifact-1",
  "contractName": "Governance",
  "sourceName": "contracts/Governance.sol",
  "abi": [
    {
      "inputs": [
        {
          "internalType": "address",
          "name": "_flt",
          "type": "address"
        }
      ],
      "stateMutability": "nonpayable",
      "type": "constructor"
    },
    {
      "inputs": [],
      "name": "ReentrancyGuardReentrantCall",
      "type": "error"
    },
    {
      "anonymous": false,
      "inputs": [
        {
          "indexed": false,
          "internalType": "uint256",
          "name": "proposalId",
          "type": "uint256"
        },
        {
          "indexed": false,
          "internalType": "address",
          "name": "creator",
          "type": "address"
        }
      ],
      "name": "ProposalCreated",
      "type": "event"
    },
    {
      "anonymous": false,
      "inputs": [
        {
          "indexed": false,
          "internalType": "uint256",
          "name": "proposalId",
          "type": "uint256"
        },
        {
          "indexed": false,
          "internalType": "bool",
          "name": "approved",
          "type": "bool"
        }
      ],
      "name": "ProposalExecuted",
      "type": "event"
    },
    {
      "anonymous": false,
      "inputs": [
        {
          "indexed": false,
          "internalType": "uint256",
          "name": "proposalId",
          "type": "uint256"
        },
        {
          "indexed": false,
          "internalType": "address",
          "name": "voter",
          "type": "address"
        },
        {
          "indexed": false,
          "internalType": "uint8",
          "name": "support",
          "type": "uint8"
        }
      ],
      "name": "VoteCasted",
      "type": "event"
    },
    {
      "inputs": [],
      "name": "MIN_VOTING_BALANCE",
      "outputs": [
        {
          "internalType": "uint256",
          "name": "",
          "type": "uint256"
        }
      ],
      "stateMutability": "view",
      "type": "function"
    },
    {
      "inputs": [],
      "name": "QUORUM",
      "outputs": [
        {
          "internalType": "uint256",
          "name": "",
          "type": "uint256"
        }
      ],
      "stateMutability": "view",
      "type": "function"
    },
    {
      "inputs": [],
      "name": "VOTING_PERIOD",
      "outputs": [
        {
          "internalType": "uint256",
          "name": "",
          "type": "uint256"
        }
      ],
      "stateMutability": "view",
      "type": "function"
    },
    {
      "inputs": [
        {
          "internalType": "uint256",
          "name": "proposalId",
          "type": "uint256"
        },
        {
          "internalType": "uint8",
          "name": "support",
          "type": "uint8"
        }
      ],
      "name": "castVote",
      "outputs": [],
      "stateMutability": "nonpayable",
      "type": "function"
    },
    {
      "inputs": [
        {
          "internalType": "uint256",
          "name": "proposalId",
          "type": "uint256"
        }
      ],
      "name": "execute",
      "outputs": [],
      "stateMutability": "nonpayable",
      "type": "function"
    },
    {
      "inputs": [],
      "name": "proposalCount",
      "outputs": [
        {
          "internalType": "uint256",
          "name": "",
          "type": "uint256"
        }
      ],
      "stateMutability": "view",
      "type": "function"
    },
    {
      "inputs": [
        {
          "internalType": "uint256",
          "name": "",
          "type": "uint256"
        }
      ],
      "name": "proposals",
      "outputs": [
        {
          "internalType": "uint256",
          "name": "projectId",
          "type": "uint256"
        },
        {
          "internalType": "address",
          "name": "creator",
          "type": "address"
        },
        {
          "internalType": "uint256",
          "name": "startBlock",
          "type": "uint256"
        },
        {
          "internalType": "uint256",
          "name": "endBlock",
          "type": "uint256"
        },
        {
          "internalType": "uint256",
          "name": "abstainVotes",
          "type": "uint256"
        },
        {
          "internalType": "uint256",
          "name": "forVotes",
          "type": "uint256"
        },
        {
          "internalType": "uint256",
          "name": "againstVotes",
          "type": "uint256"
        },
        {
          "internalType": "bool",
          "name": "executed",
          "type": "bool"
        },
        {
          "internalType": "string",
          "name": "uri",
          "type": "string"
        }
      ],
      "stateMutability": "view",
      "type": "function"
    },
    {
      "inputs": [
        {
          "internalType": "uint256",
          "name": "projectId",
          "type": "uint256"
        },
        {
          "internalType": "address",
          "name": "creator",
          "type": "address"
        },
        {
          "internalType": "string",
          "name": "uri",
          "type": "string"
        }
      ],
      "name": "propose",
      "outputs": [
        {
          "internalType": "uint256",
          "name": "",
          "type": "uint256"
        }
      ],
      "stateMutability": "nonpayable",
      "type": "function"
    },
    {
      "inputs": [
        {
          "internalType": "address",
          "name": "_transaction",
          "type": "address"
        }
      ],
      "name": "setTransaction",
      "outputs": [],
      "stateMutability": "nonpayable",
      "type": "function"
    }
  ],
  "bytecode": "0x608060405234801561001057600080fd5b506040516122d43803806122d4833981810160405281019061003291906100e4565b600160008190555080600160006101000a81548173ffffffffffffffffffffffffffffffffffffffff021916908373ffffffffffffffffffffffffffffffffffffffff16021790555050610111565b600080fd5b600073ffffffffffffffffffffffffffffffffffffffff82169050919050565b60006100b182610086565b9050919050565b6100c1816100a6565b81146100cc57600080fd5b50565b6000815190506100de816100b8565b92915050565b6000602082840312156100fa576100f9610081565b5b6000610108848285016100cf565b91505092915050565b6121b4806101206000396000f3fe608060405234801561001057600080fd5b50600436106100935760003560e01c80635678138811610066578063567813881461013c578063b1610d7e14610158578063cdce11aa14610176578063da35c66414610192578063fe0d94c1146101b057610093565b8063013cf08b146100985780632e80d9b6146100d057806342524b4b146100ee578063476b13e41461010c575b600080fd5b6100b260048036038101906100ad9190611215565b6101cc565b6040516100c79998979695949392919061133d565b60405180910390f35b6100d86102cf565b6040516100e591906113d1565b60405180910390f35b6100f66102db565b60405161010391906113d1565b60405180910390f35b6101266004803603810190610121919061147d565b6102e7565b60405161013391906113d1565b60405180910390f35b6101566004803603810190610151919061152a565b6104b9565b005b610160610b14565b60405161016d91906113d1565b60405180910390f35b610190600480360381019061018b919061156a565b610b19565b005b61019a610ccc565b6040516101a791906113d1565b60405180910390f35b6101ca60048036038101906101c59190611215565b610cd2565b005b60046020528060005260406000206000915090508060000154908060010160009054906101000a900473ffffffffffffffffffffffffffffffffffffffff16908060020154908060030154908060040154908060050154908060060154908060070160009054906101000a900460ff169080600801805461024c906115c6565b80601f0160208091040260200160405190810160405280929190818152602001828054610278906115c6565b80156102c55780601f1061029a576101008083540402835291602001916102c5565b820191906000526020600020905b8154815290600101906020018083116102a857829003601f168201915b5050505050905089565b678ac7230489e8000081565b670de0b6b3a764000081565b6000600160009054906101000a900473ffffffffffffffffffffffffffffffffffffffff1673ffffffffffffffffffffffffffffffffffffffff166391d148546000336040518363ffffffff1660e01b8152600401610347929190611649565b602060405180830381865afa158015610364573d6000803e3d6000fd5b505050506040513d601f19601f82011682018060405250810190610388919061169e565b6103c7576040517f08c379a00000000000000000000000000000000000000000000000000000000081526004016103be90611717565b60405180910390fd5b6000600460006003600081546103dc90611766565b91905081905581526020019081526020016000209050858160000181905550848160010160006101000a81548173ffffffffffffffffffffffffffffffffffffffff021916908373ffffffffffffffffffffffffffffffffffffffff160217905550438160020181905550600a4361045491906117ae565b8160030181905550838382600801918261046f9291906119c8565b507fcd423cc1203c0af96b9b3d68d73b3064a69de2d14450bb7181c5e5df2132b358600354866040516104a3929190611a98565b60405180910390a1600354915050949350505050565b600160009054906101000a900473ffffffffffffffffffffffffffffffffffffffff1673ffffffffffffffffffffffffffffffffffffffff166391d14854600160009054906101000a900473ffffffffffffffffffffffffffffffffffffffff1673ffffffffffffffffffffffffffffffffffffffff166319afe4636040518163ffffffff1660e01b8152600401602060405180830381865afa158015610564573d6000803e3d6000fd5b505050506040513d601f19601f820116820180604052508101906105889190611aed565b336040518363ffffffff1660e01b81526004016105a6929190611b29565b602060405180830381865afa1580156105c3573d6000803e3d6000fd5b505050506040513d601f19601f820116820180604052508101906105e7919061169e565b15610627576040517f08c379a000000000000000000000000000000000000000000000000000000000815260040161061e90611b9e565b60405180910390fd5b61062f611185565b60008203610672576040517f08c379a000000000000000000000000000000000000000000000000000000000815260040161066990611c0a565b60405180910390fd5b60006004600084815260200190815260200160002090503373ffffffffffffffffffffffffffffffffffffffff168160010160009054906101000a900473ffffffffffffffffffffffffffffffffffffffff1673ffffffffffffffffffffffffffffffffffffffff160361071b576040517f08c379a000000000000000000000000000000000000000000000000000000000815260040161071290611c76565b60405180910390fd5b8060020154431015610762576040517f08c379a000000000000000000000000000000000000000000000000000000000815260040161075990611ce2565b60405180910390fd5b806003015443106107a8576040517f08c379a000000000000000000000000000000000000000000000000000000000815260040161079f90611d4e565b60405180910390fd5b8060090160003373ffffffffffffffffffffffffffffffffffffffff1673ffffffffffffffffffffffffffffffffffffffff16815260200190815260200160002060009054906101000a900460ff1615610837576040517f08c379a000000000000000000000000000000000000000000000000000000000815260040161082e90611dba565b60405180910390fd5b6000600160009054906101000a900473ffffffffffffffffffffffffffffffffffffffff1673ffffffffffffffffffffffffffffffffffffffff1662fdd58e33600160009054906101000a900473ffffffffffffffffffffffffffffffffffffffff1673ffffffffffffffffffffffffffffffffffffffff1663bb7b2a5c6040518163ffffffff1660e01b8152600401602060405180830381865afa1580156108e4573d6000803e3d6000fd5b505050506040513d601f19601f820116820180604052508101906109089190611def565b6040518363ffffffff1660e01b8152600401610925929190611e1c565b602060405180830381865afa158015610942573d6000803e3d6000fd5b505050506040513d601f19601f820116820180604052508101906109669190611def565b9050670de0b6b3a76400008110156109b3576040517f08c379a00000000000000000000000000000000000000000000000000000000081526004016109aa90611e91565b60405180910390fd5b60008360ff16036109de57808260040160008282546109d291906117ae565b92505081905550610a71565b60018360ff1603610a0957808260050160008282546109fd91906117ae565b92505081905550610a70565b60028360ff1603610a345780826006016000828254610a2891906117ae565b92505081905550610a6f565b6040517f08c379a0000000000000000000000000000000000000000000000000000000008152600401610a6690611efd565b60405180910390fd5b5b5b60018260090160003373ffffffffffffffffffffffffffffffffffffffff1673ffffffffffffffffffffffffffffffffffffffff16815260200190815260200160002060006101000a81548160ff0219169083151502179055507fc4b11ca5c0c079d9e190b524b79c208b0a8a42a62d4847975222e3032e10e9fe843385604051610afe93929190611f2c565b60405180910390a15050610b106111cb565b5050565b600a81565b600160009054906101000a900473ffffffffffffffffffffffffffffffffffffffff1673ffffffffffffffffffffffffffffffffffffffff166391d148546000336040518363ffffffff1660e01b8152600401610b77929190611649565b602060405180830381865afa158015610b94573d6000803e3d6000fd5b505050506040513d601f19601f82011682018060405250810190610bb8919061169e565b610bf7576040517f08c379a0000000000000000000000000000000000000000000000000000000008152600401610bee90611717565b60405180910390fd5b600073ffffffffffffffffffffffffffffffffffffffff16600260009054906101000a900473ffffffffffffffffffffffffffffffffffffffff1673ffffffffffffffffffffffffffffffffffffffff1614610c88576040517f08c379a0000000000000000000000000000000000000000000000000000000008152600401610c7f90611faf565b60405180910390fd5b80600260006101000a81548173ffffffffffffffffffffffffffffffffffffffff021916908373ffffffffffffffffffffffffffffffffffffffff16021790555050565b60035481565b600160009054906101000a900473ffffffffffffffffffffffffffffffffffffffff1673ffffffffffffffffffffffffffffffffffffffff166391d14854600160009054906101000a900473ffffffffffffffffffffffffffffffffffffffff1673ffffffffffffffffffffffffffffffffffffffff166319afe4636040518163ffffffff1660e01b8152600401602060405180830381865afa158015610d7d573d6000803e3d6000fd5b505050506040513d601f19601f82011682018060405250810190610da19190611aed565b336040518363ffffffff1660e01b8152600401610dbf929190611b29565b602060405180830381865afa158015610ddc573d6000803e3d6000fd5b505050506040513d601f19601f82011682018060405250810190610e00919061169e565b15610e40576040517f08c379a0000000000000000000000000000000000000000000000000000000008152600401610e3790611b9e565b60405180910390fd5b610e48611185565b60006004600083815260200190815260200160002090503373ffffffffffffffffffffffffffffffffffffffff168160010160009054906101000a900473ffffffffffffffffffffffffffffffffffffffff1673ffffffffffffffffffffffffffffffffffffffff1614610ef1576040517f08c379a0000000000000000000000000000000000000000000000000000000008152600401610ee89061201b565b60405180910390fd5b8060030154431015610f38576040517f08c379a0000000000000000000000000000000000000000000000000000000008152600401610f2f90612087565b60405180910390fd5b8060070160009054906101000a900460ff1615610f8a576040517f08c379a0000000000000000000000000000000000000000000000000000000008152600401610f81906120f3565b60405180910390fd5b6000816006015482600501548360040154610fa591906117ae565b610faf91906117ae565b9050678ac7230489e80000811015610fdb57600a43610fce91906117ae565b8260030181905550611178565b60018260070160006101000a81548160ff0219169083151502179055506000816002846005015461100c9190612113565b1190507f948f4a9cd986f1118c3fbd459f7a22b23c0693e1ca3ef06a6a8be5aa7d39cc038482604051611040929190612155565b60405180910390a180156110e457600260009054906101000a900473ffffffffffffffffffffffffffffffffffffffff1673ffffffffffffffffffffffffffffffffffffffff1663317debf584600001546040518263ffffffff1660e01b81526004016110ad91906113d1565b600060405180830381600087803b1580156110c757600080fd5b505af11580156110db573d6000803e3d6000fd5b50505050611176565b600260009054906101000a900473ffffffffffffffffffffffffffffffffffffffff1673ffffffffffffffffffffffffffffffffffffffff16637c78f81f84600001546040518263ffffffff1660e01b815260040161114391906113d1565b600060405180830381600087803b15801561115d57600080fd5b505af1158015611171573d6000803e3d6000fd5b505050505b505b50506111826111cb565b50565b6002600054036111c1576040517f3ee5aeb500000000000000000000000000000000000000000000000000000000815260040160405180910390fd5b6002600081905550565b6001600081905550565b600080fd5b600080fd5b6000819050919050565b6111f2816111df565b81146111fd57600080fd5b50565b60008135905061120f816111e9565b92915050565b60006020828403121561122b5761122a6111d5565b5b600061123984828501611200565b91505092915050565b61124b816111df565b82525050565b600073ffffffffffffffffffffffffffffffffffffffff82169050919050565b600061127c82611251565b9050919050565b61128c81611271565b82525050565b60008115159050919050565b6112a781611292565b82525050565b600081519050919050565b600082825260208201905092915050565b60005b838110156112e75780820151818401526020810190506112cc565b60008484015250505050565b6000601f19601f8301169050919050565b600061130f826112ad565b61131981856112b8565b93506113298185602086016112c9565b611332816112f3565b840191505092915050565b600061012082019050611353600083018c611242565b611360602083018b611283565b61136d604083018a611242565b61137a6060830189611242565b6113876080830188611242565b61139460a0830187611242565b6113a160c0830186611242565b6113ae60e083018561129e565b8181036101008301526113c18184611304565b90509a9950505050505050505050565b60006020820190506113e66000830184611242565b92915050565b6113f581611271565b811461140057600080fd5b50565b600081359050611412816113ec565b92915050565b600080fd5b600080fd5b600080fd5b60008083601f84011261143d5761143c611418565b5b8235905067ffffffffffffffff81111561145a5761145961141d565b5b60208301915083600182028301111561147657611475611422565b5b9250929050565b60008060008060608587031215611497576114966111d5565b5b60006114a587828801611200565b94505060206114b687828801611403565b935050604085013567ffffffffffffffff8111156114d7576114d66111da565b5b6114e387828801611427565b925092505092959194509250565b600060ff82169050919050565b611507816114f1565b811461151257600080fd5b50565b600081359050611524816114fe565b92915050565b60008060408385031215611541576115406111d5565b5b600061154f85828601611200565b925050602061156085828601611515565b9150509250929050565b6000602082840312156115805761157f6111d5565b5b600061158e84828501611403565b91505092915050565b7f4e487b7100000000000000000000000000000000000000000000000000000000600052602260045260246000fd5b600060028204905060018216806115de57607f821691505b6020821081036115f1576115f0611597565b5b50919050565b6000819050919050565b6000819050919050565b60008160001b9050919050565b600061163361162e611629846115f7565b61160b565b611601565b9050919050565b61164381611618565b82525050565b600060408201905061165e600083018561163a565b61166b6020830184611283565b9392505050565b61167b81611292565b811461168657600080fd5b50565b60008151905061169881611672565b92915050565b6000602082840312156116b4576116b36111d5565b5b60006116c284828501611689565b91505092915050565b7f4e6f7420706c6174666f726d0000000000000000000000000000000000000000600082015250565b6000611701600c836112b8565b915061170c826116cb565b602082019050919050565b60006020820190508181036000830152611730816116f4565b9050919050565b7f4e487b7100000000000000000000000000000000000000000000000000000000600052601160045260246000fd5b6000611771826111df565b91507fffffffffffffffffffffffffffffffffffffffffffffffffffffffffffffffff82036117a3576117a2611737565b5b600182019050919050565b60006117b9826111df565b91506117c4836111df565b92508282019050808211156117dc576117db611737565b5b92915050565b600082905092915050565b7f4e487b7100000000000000000000000000000000000000000000000000000000600052604160045260246000fd5b60008190508160005260206000209050919050565b60006020601f8301049050919050565b600082821b905092915050565b60006008830261187e7fffffffffffffffffffffffffffffffffffffffffffffffffffffffffffffffff82611841565b6118888683611841565b95508019841693508086168417925050509392505050565b6000819050919050565b60006118c56118c06118bb846111df565b6118a0565b6111df565b9050919050565b6000819050919050565b6118df836118aa565b6118f36118eb826118cc565b84845461184e565b825550505050565b600090565b6119086118fb565b6119138184846118d6565b505050565b5b818110156119375761192c600082611900565b600181019050611919565b5050565b601f82111561197c5761194d8161181c565b61195684611831565b81016020851015611965578190505b61197961197185611831565b830182611918565b50505b505050565b600082821c905092915050565b600061199f60001984600802611981565b1980831691505092915050565b60006119b8838361198e565b9150826002028217905092915050565b6119d283836117e2565b67ffffffffffffffff8111156119eb576119ea6117ed565b5b6119f582546115c6565b611a0082828561193b565b6000601f831160018114611a2f5760008415611a1d578287013590505b611a2785826119ac565b865550611a8f565b601f198416611a3d8661181c565b60005b82811015611a6557848901358255600182019150602085019450602081019050611a40565b86831015611a825784890135611a7e601f89168261198e565b8355505b6001600288020188555050505b50505050505050565b6000604082019050611aad6000830185611242565b611aba6020830184611283565b9392505050565b611aca81611601565b8114611ad557600080fd5b50565b600081519050611ae781611ac1565b92915050565b600060208284031215611b0357611b026111d5565b5b6000611b1184828501611ad8565b91505092915050565b611b2381611601565b82525050565b6000604082019050611b3e6000830185611b1a565b611b4b6020830184611283565b9392505050565b7f426c61636b6c6973746564206163636f756e7400000000000000000000000000600082015250565b6000611b886013836112b8565b9150611b9382611b52565b602082019050919050565b60006020820190508181036000830152611bb781611b7b565b9050919050565b7f5265736572766564204944000000000000000000000000000000000000000000600082015250565b6000611bf4600b836112b8565b9150611bff82611bbe565b602082019050919050565b60006020820190508181036000830152611c2381611be7565b9050919050565b7f43616e6e6f7420766f7465206f776e206d696c6573746f6e6500000000000000600082015250565b6000611c606019836112b8565b9150611c6b82611c2a565b602082019050919050565b60006020820190508181036000830152611c8f81611c53565b9050919050565b7f50726f706f73616c206e6f742073746172746564000000000000000000000000600082015250565b6000611ccc6014836112b8565b9150611cd782611c96565b602082019050919050565b60006020820190508181036000830152611cfb81611cbf565b9050919050565b7f50726f706f73616c20656e646564000000000000000000000000000000000000600082015250565b6000611d38600e836112b8565b9150611d4382611d02565b602082019050919050565b60006020820190508181036000830152611d6781611d2b565b9050919050565b7f416c726561647920766f74656400000000000000000000000000000000000000600082015250565b6000611da4600d836112b8565b9150611daf82611d6e565b602082019050919050565b60006020820190508181036000830152611dd381611d97565b9050919050565b600081519050611de9816111e9565b92915050565b600060208284031215611e0557611e046111d5565b5b6000611e1384828501611dda565b91505092915050565b6000604082019050611e316000830185611283565b611e3e6020830184611242565b9392505050565b7f496e73756666696369656e7420464c5420666f7220766f74696e670000000000600082015250565b6000611e7b601b836112b8565b9150611e8682611e45565b602082019050919050565b60006020820190508181036000830152611eaa81611e6e565b9050919050565b7f57726f6e6720766f74696e6720737570706f7274207479706500000000000000600082015250565b6000611ee76019836112b8565b9150611ef282611eb1565b602082019050919050565b60006020820190508181036000830152611f1681611eda565b9050919050565b611f26816114f1565b82525050565b6000606082019050611f416000830186611242565b611f4e6020830185611283565b611f5b6040830184611f1d565b949350505050565b7f416c726561647920736574000000000000000000000000000000000000000000600082015250565b6000611f99600b836112b8565b9150611fa482611f63565b602082019050919050565b60006020820190508181036000830152611fc881611f8c565b9050919050565b7f4e6f742070726f6a6563742063726561746f7200000000000000000000000000600082015250565b60006120056013836112b8565b915061201082611fcf565b602082019050919050565b6000602082019050818103600083015261203481611ff8565b9050919050565b7f50726f706f73616c207374696c6c206163746976650000000000000000000000600082015250565b60006120716015836112b8565b915061207c8261203b565b602082019050919050565b600060208201905081810360008301526120a081612064565b9050919050565b7f50726f706f73616c20616c726561647920657865637574656400000000000000600082015250565b60006120dd6019836112b8565b91506120e8826120a7565b602082019050919050565b6000602082019050818103600083015261210c816120d0565b9050919050565b600061211e826111df565b9150612129836111df565b9250828202612137816111df565b9150828204841483151761214e5761214d611737565b5b5092915050565b600060408201905061216a6000830185611242565b612177602083018461129e565b939250505056fea264697066735822122087f545967f0c288939c94f1de751766ca2f206b5ee1a32684860d33ac8cbd30864736f6c634300081c0033",
  "linkReferences": {},
  "deployedLinkReferences": {}
}